:020000041C00DE
:100800006FC0D07E6FC0907E6FC0507E6FC0107E74
:100810006FC0D07D6FC0907D6FC0507D6FC0107D68
:100820006FC0D07C6FC0907C6F70700E6FC0107CFA
:100830006FC0D07B6FC0907B6FC0507B6FC0107B50
:100840006FC0D07A6FC0907A6FC0507A6FC0107A44
:100850006FC0D0796FC090796FC050796FC0107938
:100860006FC0D0786FC090786FC050786FC010782C
:100870006FC0D0776FC090776FC050776FC0107720
:10808000976100009381816E177101001301816E69
:10809000018973104530732540301785FFFF1305A4
:1080A00065761365150073105530938281A317739D
:1080B00000001303A3EB23A002009102E3ED62FE94
:1080C00002454C000146EF5080666F00C07282800E
:1080D00000000000000000000000000000000000A0
:1080E0000000000000000000000000000000000090
:1080F0000000000000000000000000000000000080
:108100000100010001000100010001000100010067
:1081100001000100130181F806C216C41AC61EC868
:1081200022CA26CC2ACE2ED032D236D43AD63ED847
:1081300042DA46DC4ADECEC0D2C2D6C4DAC6DEC8D7
:10814000E2CAE6CCEACEEED0F2D2F6D4FAD6FED827
:10815000F322003096DA2111F3220080732310807D
:10816000F3232080732E4080F32E5080732F608085
:1081700016C21AC41EC672C876CA7ACC83A2C13D82
:1081800023A0220073252034F32510341356F50163
:10819000630806002EC003A181A2EF30A0042DA029
:1081A00091052EC0AD426317550003A181A2EF10C7
:1081B000003019A8F322203473231034F323003045
:1081C000D5BFF3222034F5BF03A3C13D0321030033
:1081D00082427390123492422243B243424ED24EB4
:1081E000624F73900280731013807390238073101A
:1081F0004E8073905E8073106F806101D6527390D1
:1082000002309240A2423243C2435244E244724599
:1082100082551256A2563257C2575258E2587259D6
:108220008649164AA64A364BC64B564CE64C764D06
:10823000865D165EA65E365FC65F1301810773001A
:108240002030130000001300000013000000130092
:1082500000001300000013000000130000001300D2
:1082600000001300000013000000130000001300C2
:1082700000001300000013000000130000001300B2
:1082800000001300000013000000130000001300A2
:108290000000130000001300000013000000130092
:1082A0000000130000001300000013000000130082
:1082B0000000130000001300000013000000130072
:1082C0000000130000001300000013000000130062
:1082D0000000130000001300000013000000130052
:1082E0000000130000001300000013000000130042
:1082F0000000130000001300000013000000010044
:10830000130181F806C216C41AC61EC822CA26CC9A
:108310002ACE2ED032D236D43AD63ED842DA46DCF5
:108320004ADECEC0D2C2D6C4DAC6DEC8E2CAE6CCC5
:10833000EACEEED0F2D2F6D4FAD6FED8F32200304E
:1083400096DA2111F322008073231080F32320801A
:10835000732E4080F32E5080732F608016C21AC493
:108360001EC672C876CA7ACC83A2C13D23A0220061
:1083700073252034F32510342EC003A181A2EF0011
:10838000F07BE30305E4EF10801203A3C13D03215A
:10839000030082427390123492422243B243424E0F
:1083A000D24E624F739002807310138073902380BB
:1083B00073104E8073905E8073106F806101D6528F
:1083C000739002309240A2423243C2435244E2448C
:1083D000724582551256A2563257C2575258E25829
:1083E00072598649164AA64A364BC64B564CE64C3D
:1083F000764D865D165EA65E365FC65F1301810709
:108400007300203013000000130000001300000070
:108410001300000013000000130000001300000010
:108420001300000013000000130000001300000000
:1084300013000000130000001300000013000000F0
:1084400013000000130000001300000013000000E0
:1084500013000000130000001300000013000000D0
:1084600013000000130000001300000013000000C0
:1084700013000000130000001300000013000000B0
:1084800013000000130000001300000013000000A0
:108490001300000013000000130000001300000090
:1084A0001300000013000000130000001300000080
:1084B0001300000013000000130000001300000070
:1084C0001300000013000000130000001300000060
:1084D0001300000013000000130000001300000050
:1084E0001300000013000000130000001300000040
:1084F0001300000013000000130000001300000030
:1085000003A1C13D0241824092422243B243424E06
:10851000D24E624F73900280731013807390238049
:1085200073104E8073905E8073106F8061013243D0
:10853000C2435244E244724582551256A256325703
:10854000C2575258E25872598649164AA64A364BC3
:10855000C64B564CE64C764D865D165EA65E365F83
:10856000C65FD652A10273900230A2421301810766
:1085700082801300000013000000130000001300AD
:10858000000013000000130000001300000013009F
:10859000000013000000130000001300000013008F
:1085A000000013000000130000001300000013007F
:1085B000000013000000130000001300000013006F
:1085C000000013000000130000001300000013005F
:1085D000000013000000130000001300000013004F
:1085E000000013000000130000001300000013003F
:1085F0000000130000001300000013000000010041
:10860000F322003093F272FF130380181203B3E2D7
:108610006200711523205500130585FA10C121153C
:108620002320050093026000638702007115232058
:108630000500FD12D5BF71150CC18280000000003D
:10864000000000000000000000000000000000002A
:10865000000000000000000000000000000000001A
:10866000000000000000000000000000000000000A
:1086700000000000000000000000000000000000FA
:1086800000000000000000000000000000000000EA
:1086900000000000000000000000000000000000DA
:1086A00000000000000000000000000000000000CA
:1086B00000000000000000000000000000000000BA
:1086C00000000000000000000000000000000000AA
:1086D000000000000000000000000000000000009A
:1086E000000000000000000000000000000000008A
:1086F000000000000000000000000000000000007A
:108700000000000000000000000000000000000069
:108710000000000000000000000000000000000059
:108720000000000000000000000000000000000049
:108730007375043082807310053082800321050038
:10874000224573100530A1A819712320250006C009
:1087500006C273250030218919C1130500082AC4F7
:1087600012C816CA1ACC1ECE22D026D22AD42ED691
:1087700032D836DA3ADC3EDEC2C0C6C2CAC4CEC681
:10878000D2C8D6CADACCDECEE2D0E6D2EAD4EED671
:10879000F2D8F6DAFADCFEDE03A1050009A00245F4
:1087A000731015349240B72200009382028073A0A8
:1087B00002302245732005304242D2426243F243E6
:1087C000025492542255B2554256D2566257F2572D
:1087D000064896482649B649464AD64A664BF64B5D
:1087E000065C965C265DB65D465ED65E665FF65FAD
:1087F0000961730020304111814522C406C62A84D4
:10880000C52003A501A25C5D91C382972285B52A8C
:10881000B3C7A5008D8B3307C50081E78D4763EF94
:10882000C700AA876369E500828083C605008507C3
:108830008505A38FD7FEE3EAE7FE828093773500B4
:10884000BDEBAA879376C7FF138606FE63FCC706B7
:1088500083A3050083A2450083AF850003AFC50055
:1088600083AE050103AE450103A3850183A8C501BD
:108870009385450223A0770003A8C5FF23A25700D4
:1088800023A4F70123A6E70123A8D70123AAC70140
:1088900023AC670023AE17019387470223AE07FF7F
:1088A00075B783C6050085078505A38FD7FE93F6A8
:1088B0003700E5FA41BFAA87DDBF904191079105D6
:1088C00023AEC7FEE3EBD7FEE3E7E7F68280AA8795
:1088D000850703C7F7FF6DFF3385A7407D158280AD
:1088E00079714ECE83A901A252CC56CA5AC806D677
:1088F00022D426D24AD05EC6AA8A2E8A054B83A4E9
:10890000891481C8C0401309F4FF0A042694635DEA
:108910000900B250225492540259F249624AD24A92
:10892000424BB24B4561828063090A0083274410A1
:10893000638547017D197114D9BFD8405C407D170C
:108940006316270323A22401F5D783A684183317BF
:108950002B0183AB4400F98E89EE8297D84083A720
:108960008914E31E77F9E387F4FC51BF2322040046
:10897000E1BF83A6C41883254408758F01E7568597
:108980008297E9BF2E858297D1BF814501468146F6
:10899000014781479308D00573000000635B050021
:1089A000411122C42A8406C633048040212000C11C
:1089B00001A001A003A541A28280011122CE0010D6
:1089C0002326A4FE8327C4FE138787008327C4FEC3
:1089D000D8C38327C4FE7D5798C78327C4FE138757
:1089E00087008327C4FED8C78327C4FE1387870068
:1089F0008327C4FE98CB8327C4FE23A00700010071
:108A0000724405618280797122D60018232EA4FC5D
:108A1000232CB4FC8327C4FDDC432326F4FE8327E8
:108A200084FD0327C4FED8C38327C4FE9847832749
:108A300084FD98C78327C4FE9C47032784FDD8C3C1
:108A40008327C4FE032784FD98C7832784FD03275B
:108A5000C4FD98CB8327C4FD9C431387170083274D
:108A6000C4FD98C30100325445618280797122D6D9
:108A70000018232EA4FC232CB4FC832784FD9C43E4
:108A80002324F4FE032784FEFD576318F700832791
:108A9000C4FD9C4B2326F4FE25A08327C4FDA1071B
:108AA0002326F4FE31A08327C4FEDC432326F4FEF4
:108AB0008327C4FEDC439C43032784FEE375F7FE53
:108AC0008327C4FED843832784FDD8C3832784FD2E
:108AD000DC43032784FD98C7832784FD0327C4FE56
:108AE00098C78327C4FE032784FDD8C3832784FD4A
:108AF0000327C4FD98CB8327C4FD9C43138717002D
:108B00008327C4FD98C30100325445618280797186
:108B100022D60018232EA4FC8327C4FD9C4B2326B9
:108B2000F4FE8327C4FDDC430327C4FD184798C720
:108B30008327C4FD9C470327C4FD5843D8C383271C
:108B4000C4FEDC430327C4FD6318F7008327C4FD7C
:108B500098478327C4FED8C38327C4FD23A80700F2
:108B60008327C4FE9C431387F7FF8327C4FE98C363
:108B70008327C4FE9C433E853254456182807971CF
:108B800006D622D40018232EA4FC232CB4FC832761
:108B9000C4FD2326F4FE8327C4FE81E773700430EE
:108BA00001A0EF0070588327C4FE98438327C4FEBA
:108BB000D45F8327C4FEBC43B387F6023E97832766
:108BC000C4FE98C78327C4FE23AC07028327C4FED4
:108BD00098438327C4FED8C38327C4FE98438327C2
:108BE000C4FEDC5F9386F7FF8327C4FEBC43B387D4
:108BF000F6023E978327C4FED8C78327C4FE7D575D
:108C00002382E7048327C4FE7D57A382E7048327DA
:108C100084FD85E38327C4FE9C4B9DC78327C4FE48
:108C2000C1073E85EF00D01EAA8799CF73000000D0
:108C300021A88327C4FEC1073E8541338327C4FE94
:108C4000938747023E85953BEF00705085473E85F0
:108C5000B250225445618280797106D622D4001820
:108C6000232EA4FC232CB4FCB287A30BF4FC832793
:108C7000C4FD81E77370043001A00327C4FD83277E
:108C800084FDB307F7022326F4FE8327C4FE9387EF
:108C900007053E85EF00305A2324A4FE832784FE77
:108CA0009DC7832784FE2322F4FE832744FE9387F7
:108CB00007052322F4FE834774FD032784FEBE8646
:108CC000032644FE832584FD0325C4FD0128832754
:108CD00084FE3E85B250225445618280797106D669
:108CE00022D400182326A4FE2324B4FE2322C4FE8B
:108CF000B687232EE4FCA301F4FE832784FE99E7C4
:108D00008327C4FD0327C4FD98C331A08327C4FD76
:108D1000032744FE98C38327C4FD0327C4FED8DF7E
:108D20008327C4FD032784FEB8C385450325C4FDFE
:108D3000B9358327C4FD034734FE2386E7040100C9
:108D4000B250225445618280397106DE22DC8000F7
:108D50002326A4FC2324B4FC2322C4FC2320D4FC1B
:108D6000232604FE8327C4FC2324F4FE832784FEE9
:108D700081E77370043001A0832784FC89E783278F
:108D800084FEBC4399E3854711A0814781E7737056
:108D9000043001A0032704FC89476318F7008327E8
:108DA00084FED85F85476314F700854711A081478B
:108DB00081E77370043001A0EF003026AA8781E7B5
:108DC000832744FC99E3854711A0814781E77370AD
:108DD000043001A0EF005035832784FE985F83277D
:108DE00084FEDC5F6367F700032704FC8947631494
:108DF000F704032604FC832584FC032584FEFD225E
:108E00002322A4FE832784FEDC5389CF832784FE9C
:108E1000938747023E85EF00A07FAA8789CB730026
:108E2000000031A0832744FE99C373000000EF00C7
:108E300010328547D1A0832744FC89E7EF00303109
:108E400081475DA88327C4FE89EB9307C4FD3E8557
:108E5000EF00F00785472326F4FEEF00502F552E34
:108E6000EF00902C832784FE83C747041397870164
:108E70006187FD576316F700832784FE238207046A
:108E8000832784FE83C75704139787016187FD57A3
:108E90006316F700832784FEA3820704EF00302BBC
:108EA000130744FC9307C4FDBA853E85EF00900488
:108EB000AA8795EF032584FE312EAA8785C78327CD
:108EC00084FEC107032744FCBA853E85EF0060702D
:108ED000032584FE8924992EAA87E39D07EE73005B
:108EE0000000CDBD032584FE3D248926E5B503257C
:108EF00084FE1524252E81473E85F250625421615F
:108F00008280397106DE22DC80002326A4FC232423
:108F1000B4FC8327C4FC2324F4FE832784FE81E76A
:108F20007370043001A0832784FEBC4381C7737033
:108F3000043001A0832784FE9C4389E7832784FEB5
:108F40009C4799E3854711A0814781E773700430FE
:108F500001A0232204FE832784FE9C5F2320F4FECD
:108F6000832784FEDC5F032704FE6378F7068327EC
:108F700084FE83C75704A30FF4FC832704FE1387E2
:108F80001700832784FE98DF0307F4FDFD5763165F
:108F9000F702832784FEDC538DCF832784FE9387DB
:108FA00047023E85B525AA878DC7832784FC95C3D4
:108FB000832784FC054798C329A88347F4FD8507C8
:108FC00093F7F70F139787016187832784FEA382A6
:108FD000E70485472326F4FE19A0232604FE8327F1
:108FE000C4FE3E85F250625421618280797106D6BA
:108FF00022D40018232EA4FC232CB4FC232AC4FC66
:10900000232604FE8327C4FD9C5F2324F4FE8327CC
:10901000C4FDBC4395E38327C4FD9C43F9EF83273C
:10902000C4FD9C473E85EF0070022326A4FE8327E3
:10903000C4FD23A40700D1A0832744FDB1E7832703
:10904000C4FDD8438327C4FDBC433E86832584FDED
:109050003A85EFF0EFFB8327C4FDD8438327C4FD97
:10906000BC433E978327C4FDD8C38327C4FDD843A0
:109070008327C4FD9C476362F7088327C4FD984398
:109080008327C4FDD8C395A88327C4FDD847832769
:10909000C4FDBC433E86832584FD3A85EFF04FF73F
:1090A0008327C4FDD8478327C4FDBC43B307F040E2
:1090B0003E978327C4FDD8C78327C4FDD84783279D
:1090C000C4FD9C43637EF7008327C4FD9847832734
:1090D000C4FDBC43B307F0403E978327C4FDD8C707
:1090E000032744FD8947631AF700832784FE91C74D
:1090F000832784FEFD172324F4FE832784FE138731
:1091000017008327C4FD98DF8327C4FE3E85B25035
:10911000225445618280797106D622D40018232E0C
:10912000A4FCEF0070008327C4FD83C75704A30786
:10913000F4FE35A08327C4FDDC539DC78327C4FDFF
:10914000938747023E85E921AA8799C3EF006068AB
:109150008347F4FEFD1793F7F70FA307F4FE830789
:10916000F4FEE349F0FC11A001008327C4FD7D5704
:10917000A382E704EF00A07DEF00007B8327C4FDFE
:1091800083C747042307F4FE25A08327C4FD9C4B17
:109190008DC78327C4FDC1073E859D29AA8791C33A
:1091A0000D2D8347E4FEFD1793F7F70F2307F4FE19
:1091B0008307E4FEE34BF0FC11A001008327C4FD0C
:1091C0007D572382E704EF0080780100B2502254DB
:1091D00045618280797106D622D40018232EA4FC22
:1091E000EF0080748327C4FD985F8327C4FDDC5F94
:1091F0006316F70085472326F4FE19A0232604FEF4
:10920000EF00E0748327C4FE3E85B25022544561CE
:109210008280411122C6000883A78140138717006E
:1092200023A4E1400100324441018280011106CEB5
:1092300022CC0010232604FE232404FE83A78140B1
:1092400081E77370043001A0EF00006E83A78140B6
:109250001387F7FF23A4E14083A781406398070C9D
:1092600083A7813E6384070C9DA89387C1A9DC472F
:10927000DC472326F4FE8327C4FEE1073E85EFF09A
:109280001F898327C4FE91073E85EFF05F888327FF
:10929000C4FED85783A7013F63F7E7008327C4FEC6
:1092A000D85723A8E13E8327C4FED857BA878A0738
:1092B000BA978A07138781A33E978327C4FE910735
:1092C000BE853A85EFF02FF48327C4FED85783A7D5
:1092D000C13DDC576365F700054723AEE13E938748
:1092E000C1A99C43D9F38327C4FE91C3ED2983A769
:1092F000813F2322F4FE832744FE8DC38120AA8769
:1093000081C7054723AEE13E832744FEFD17232294
:10931000F4FE832744FEFDF323AC013E83A7C13F47
:1093200091C785472324F4FE730000000D25832791
:1093300084FE3E85F240624405618280797106D6E2
:1093400022D40018232604FE83A7814063920714C9
:1093500083A7C13E85072324F4FE032784FE23A6AA
:10936000E13E832784FE9DEB83A7013E9C4381C79A
:109370007370043001A083A7013E2322F4FE03A7EB
:10938000413E23A0E13E032744FE23A2E13E83A702
:1093900001401387170023A0E140B12183A741407A
:1093A000032784FE6369F70A83A7013E9C4389E78C
:1093B0007D5723A2E14045A083A7013EDC47DC475F
:1093C0002320F4FE832704FEDC43232EF4FC032732
:1093D00084FE8327C4FD6377F7000327C4FD23A21F
:1093E000E14095A8832704FE91073E85EFF02FF218
:1093F000832704FE9C5799C7832704FEE1073E8517
:10940000EFF0EFF0832704FED85783A7013F63F7FF
:10941000E700832704FED85723A8E13E832704FEF4
:10942000D857BA878A07BA978A07138781A33E97C6
:10943000832704FE9107BE853A85EFF0CFDC8327B2
:1094400004FED85783A7C13DDC57E36FF7F4854787
:109450002326F4FE91BF83A7C13DD857938681A3ED
:10946000BA878A07BA978A07B6979843854763F5FC
:10947000E70085472326F4FE83A7813F99E3EF2089
:10948000A01F83A7C13F89CF85472326F4FE09A8E3
:1094900083A7813F1387170023ACE13EEF20C01D57
:1094A0008327C4FE3E85B25022544561828001115B
:1094B00006CE22CC001083A7814089C7054723AE82
:1094C000E13E19A223AE013E83A7C13D9C5B23244C
:1094D000F4FEB7A7A5A59387575A2322F4FE832746
:1094E00084FE9C43032744FE631AF702832784FE0D
:1094F00091079C43032744FE6312F702832784FEEF
:10950000A1079C43032744FE631AF700832784FEC8
:10951000B1079C43032744FE630CF70003A7C13D3A
:1095200083A7C13D93874703BE853A85EF2060132B
:1095300083A7013F2326F4FE21A88327C4FE81E7E9
:109540007370043001A08327C4FEFD172326F4FEA8
:10955000938681A30327C4FEBA878A07BA978A072E
:10956000B6979C43F9DB0327C4FEBA878A07BA97EC
:109570008A07138781A3BA972320F4FE832704FE6A
:10958000DC43D843832704FED8C3832704FED84393
:10959000832704FEA1076319F700832704FEDC4339
:1095A000D843832704FED8C3832704FEDC43D8476F
:1095B00023AEE13C0327C4FE23A8E13E83A7C13DBF
:1095C0001387870523A2E1A20100F24062440561EE
:1095D0008280011106CE22CC00102326A4FE232473
:1095E000B4FE8327C4FE81E77370043001A083A713
:1095F000C13DE107BE850325C4FEEFF02FC78545B9
:10960000032584FEB52E0100F2406244056182808C
:10961000797106D622D40018232EA4FC8327C4FD1A
:10962000DC47DC472324F4FE832784FE81E7737044
:10963000043001A0832784FEE1073E85EFF02FCDA3
:1096400083A78140A9E7832784FE91073E85EFF039
:109650000FCC832784FED85783A7013F63F7E70029
:10966000832784FED85723A8E13E832784FED8575A
:10967000BA878A07BA978A07138781A33E978327F9
:1096800084FE9107BE853A85EFF0EFB709A88327DE
:1096900084FEE107BE851385C1A9EFF0CFB683270D
:1096A00084FED85783A7C13DDC5763F9E70085479F
:1096B0002326F4FE054723AEE13E19A0232604FE2F
:1096C0008327C4FE3E85B250225445618280011139
:1096D00022CE00102326A4FE03A701408327C4FE48
:1096E00098C303A7C13E8327C4FED8C301007244B8
:1096F00005618280797106D622D40018232EA4FC3D
:10970000232CB4FC8327C4FD81E77370043001A0CF
:10971000832784FD81E77370043001A0312483A77F
:10972000C13E2324F4FE8327C4FDDC43032784FECB
:10973000B307F7402322F4FE83A7C13D83C75748F0
:1097400089CB83A7C13DA382074885472326F4FE22
:109750008DA8832784FD9843FD576315F7002326C2
:1097600004FE85A08327C4FD984383A70140630DB1
:10977000F7008327C4FDDC43032784FE6366F700FC
:1097800085472326F4FE35A8832784FD9C430327C1
:1097900044FE6371F702832784FD9843832744FEC8
:1097A0001D8F832784FD98C30325C4FD0D37232611
:1097B00004FE01A8832784FD23A0070085472326F4
:1097C000F4FE71228327C4FE3E85B25022544561C7
:1097D0008280411122C60008054723AEE13E010008
:1097E000324441018280011122CE001083A7013E44
:1097F0009C4389E77D5723A2E14021A883A7013E2E
:10980000DC47DC472326F4FE8327C4FED84323A28B
:10981000E1400100724405618280011122CE0010F6
:1098200083A7413F89E785472326F4FE11A883A734
:10983000814089E789472326F4FE19A0232604FEE8
:109840008327C4FE3E85724405618280797106D605
:1098500022D40018232EA4FC8327C4FD2324F4FE65
:10986000232604FE8327C4FDCDCB83A7C13D032758
:1098700084FE6305F7007370043001A0832784FE23
:10988000FC4B81E77370043001A0832784FEFC4BFE
:109890001387F7FF832784FEF8CB832784FED857EE
:1098A000832784FEBC4B630AF706832784FEFC4BA8
:1098B000ADE7832784FE91073E85EFF04FA5832710
:1098C00084FEB84B832784FED8D7832784FEDC57D9
:1098D00015471D8F832784FE98CF832784FED85792
:1098E00083A7013F63F7E700832784FED85723A8A7
:1098F000E13E832784FED857BA878A07BA978A073A
:10990000138781A33E97832784FE9107BE853A85FE
:10991000EFF06F8F85472326F4FE8327C4FE3E8534
:10992000B250225445618280411122C600087370F2
:10993000043083A7413F81CB83A7C13DF84305078E
:10994000F8C383A7C13D0100324441018280411127
:1099500022C6000883A7413F85C383A7C13DFC43BE
:1099600081CF83A7C13DF8437D17F8C383A7C13DCD
:10997000FC4399E37360043001003244410182806A
:10998000797106D622D40018232EA4FC232CB4FC13
:1099900083A7C13E2326F4FE83A7C13DA3820748C7
:1099A00083A7C13D91073E85EFF06F960327C4FD65
:1099B000FD57631EF700832784FD91CB83A7C13D2C
:1099C0009107BE85138501ABEFF0EF8385A00327D8
:1099D000C4FE8327C4FDBA972324F4FE83A7C13DA8
:1099E000032784FED8C3032784FE8327C4FE637C39
:1099F000F70003A7413E83A7C13D9107BE853A8585
:109A0000EFF0CF8625A003A7013E83A7C13D9107B4
:109A1000BE853A85EFF08F8583A74140032784FEFA
:109A20006376F700032784FE23A2E1400100B250D1
:109A3000225445618280397106DE22DC80002326B3
:109A4000A4FC232204FEEFF0CFFC83A7C14189E7E9
:109A5000992A054723AEE1408327C4FC95C3C1473B
:109A60003E878327C4FCBA972326F4FC8327C4FCD3
:109A7000BD8B99C78327C4FCC19BC1072326F4FC77
:109A80008327C4FC638307100327C4FCC167BD1789
:109A900063EDE70E9387C1402324F4FE9387C14012
:109AA0009C432326F4FE11A88327C4FE2324F4FE3E
:109AB0008327C4FE9C432326F4FE8327C4FEDC4395
:109AC0000327C4FC63F6E7008327C4FE9C43E9FF39
:109AD0000327C4FE938741416309F70A832784FE65
:109AE0009C434147BA972322F4FE8327C4FE984340
:109AF000832784FE98C38327C4FED8438327C4FCEE
:109B0000B307F740414706076379F7060327C4FE0A
:109B10008327C4FCBA97232EF4FC8327C4FED843C2
:109B20008327C4FC1D8F8327C4FDD8C38327C4FEAD
:109B30000327C4FCD8C38327C4FDDC43232CF4FCD7
:109B40009387C1402320F4FE31A0832704FE9C4369
:109B50002320F4FE832704FE9C43DC43032784FD7B
:109B6000E3E5E7FE832704FE98438327C4FD98C3FB
:109B7000832704FE0327C4FD98C303A7C1A283273C
:109B8000C4FEDC431D8F23A6E1A2EFF02FEA83275A
:109B900044FE99E3EF10102C832744FE3E85F250DB
:109BA000625421618280011122CE0010B7F7001C9F
:109BB000938707F8C19B2326F4FE9387C1400327B0
:109BC000C4FE98C39387C14023A2070093874141F5
:109BD00041674117D8C39387414123A007008327DA
:109BE000C4FE2324F4FE832784FE41674117D8C3B3
:109BF000832784FE1387414198C3010072440561A5
:109C00008280011122CE0010B777101A2326F4FEAD
:109C10008327C4FE9C4393F7F70793F7F70F3E851E
:109C2000724405618280797122D60018AA87A30F39
:109C3000F4FCB777101A2326F4FE8347F4FD93F75C
:109C4000F70713F7F70F8327C4FE1376F70703C749
:109C50000700137707F8BA863287558F2380E7000D
:109C60000100325445618280797122D60018AA879A
:109C7000A30FF4FCB777101A2326F4FE0347F4FD74
:109C80008547631BF7008327C4FE03C7470013679C
:109C900017002382E70019A88347F4FD81EB83278F
:109CA000C4FE03C74700799B2382E7008327C4FED5
:109CB000DC43858B93F7F70F3E85325445618280F4
:109CC000011122CE00102326A4FE0100724405617A
:109CD0008280797106D622D40018232EA4FC232674
:109CE00004FE11A88327C4FE3E8585288327C4FE71
:109CF00085072326F4FE0327C4FE9307700AE3D3E7
:109D0000E7FE0100B250225445618280011122CE4B
:109D100000102326A4FE2324B4FE2322C4FE83279E
:109D200084FE81CFB7E7001C1387C7228327C4FEB8
:109D30008A07BA97032784FE98C3832744FE91CBF2
:109D4000138741D68327C4FE8A07BA97032744FEA8
:109D500098C30100724405618280011122CE001077
:109D60002326A4FEB7E7001C1387C7228327C4FE5F
:109D70008A07BA9737A7001C130707CC98C3138725
:109D800041D68327C4FE8A07BA9723A007000100A3
:109D9000724405618280797106D622D40018232E80
:109DA000A4FC232604FEB767101A938707099C4377
:109DB0002324F4FE832784FE93F7F70F2324F4FE75
:109DC000B7E7001C1387C722832784FE8A07BA9748
:109DD0009C4391CFB7E7001C1387C722832784FEDB
:109DE0008A07BA979843832784FE3E850297138794
:109DF00041D6832784FE8A07BA979C438DC7138771
:109E000041D6832784FE8A07BA979C432322F4FE17
:109E100093850142032544FEEFF0AF8E83A70142F4
:109E200099C3EFF0CFE80100B2502254456182801F
:109E3000011122CE26CC0010232604FEF327003089
:109E4000BE84A6872326F4FEA1472324F4FE83279D
:109E500084FEF3A707302324F4FE832784FE232601
:109E6000F4FEF3270030BE84A6872326F4FE832762
:109E7000C4FE3E857244E24405618280797122D637
:109E80000018AA872E87A30FF4FCBA87230FF4FCCF
:109E9000B747101A2326F4FE0347F4FD9307F00298
:109EA00063F5E7007370043001A08347F4FD0347B6
:109EB000E4FD0D8B9376F70F0327C4FE93870710FD
:109EC0008A07BA9736871376370003D70700719B46
:109ED000BA863287558F2390E700010032544561DE
:109EE0008280797122D60018AA87A30FF4FCB747A5
:109EF000101A2326F4FE0347F4FD9307F00263F5DE
:109F0000E7007370043001A08347F4FD0327C4FE0B
:109F1000938707108A07BA979C438D8B93F7F70FA7
:109F20003E85325445618280011122CE00102326E5
:109F3000A4FE2324B4FE032784FE8327C4FE1CC38F
:109F40000100724405618280011106CE22CC00100E
:109F50002326A4FE2324B4FE0327C4FEB767101AE9
:109F6000BA97BE85032584FEC1370100F2406244E2
:109F700005618280011106CE22CC0010232604FE4A
:109F800029A88327C4FE85078A07FD553E856D3FB6
:109F90008327C4FE85072326F4FE0327C4FE9D47BE
:109FA000E3D1E7FE0100F2406244056182800111C5
:109FB00022CE00102326A4FE2324B4FE032784FE11
:109FC0008327C4FE1CC301007244056182804111D5
:109FD00006C622C40008B7B5101A0145C93FB7B775
:109FE000101A938547000145D93701003E85B240DC
:109FF000224441018280011106CE22CC001023268A
:10A00000A4FE81450325C4FE1928B7B5101A5D4585
:10A01000793F81473E85F2406244056182800111AB
:10A0200006CE22CC00102326A4FEAE87A305F4FEA4
:10A03000B7B7101A938507020545953FB7B7101AB1
:10A04000938507010325C4FE9D37B7B7101A938582
:10A0500047020545A93F81473E85F24062440561BC
:10A060008280011122CE00102326A4FE2324B4FEF8
:10A07000032784FE8327C4FE1CC3010072440561CC
:10A080008280797122D60018232EA4FC8327C4FD78
:10A090009C432326F4FE8327C4FE3E85325445614B
:10A0A0008280011106CE22CC00102326A4FE232498
:10A0B000B4FE032784FEB767101A9107BA97BE85CE
:10A0C0000325C4FE793F0100F240624405618280AD
:10A0D000011106CE22CC00102326A4FE0327C4FEC5
:10A0E000B767101A9107BA973E85613FAA873E85E8
:10A0F000F240624405618280797106D622D400184C
:10A10000232EA4FC0327C4FD9307F00F63CCE704C0
:10A110008327C4FD63C807040327C4FD9357F74191
:10A12000ED833E977D8BB307F7402326F4FE83270C
:10A13000C4FD13D7F7417D8BBA9795878A072324EF
:10A14000F4FE032584FE6937AA8605478327C4FEEB
:10A15000B317F70093C7F7FFF58F832584FE3E857D
:10A16000893711A00100B250225445618280797173
:10A1700022D60018232EA4FC232604FE8327C4FE27
:10A1800085072326F4FE01003254456182807971EF
:10A1900022D60018232EA4FC232604FE8327C4FE07
:10A1A00085072326F4FE01003254456182807971CF
:10A1B00006D622D40018AA87232CB4FCA30FF4FCE3
:10A1C000B727101A2326F4FE0347F4FDB7273400FF
:10A1D00093875704BA979E072324F4FE8347F4FD20
:10A1E000138781478A07BA979C4389EB8347F4FD1D
:10A1F000138701478A07BA979C4399C385478DA265
:10A200008327C4FE9C470347F4FDC1463397E6000D
:10A210005D8F8327C4FE98C78327C4FE9C470347EE
:10A22000F4FDC1463397E6001347F7FF7D8F832780
:10A23000C4FE98C78327C4FE9C430347F4FDC14670
:10A240003397E6005D8F8327C4FE98C30D46814592
:10A250000545EFE07FA02322A4FE832744FE81E78B
:10A260007370043001A0814601468145032544FEF8
:10A27000EFE09FAD8347F4FD138781478A07BA97C4
:10A28000032744FE98C30D4681450545EFE0DF9C5A
:10A290002322A4FE832744FE81E77370043001A0CB
:10A2A000814601468145032544FEEFE0FFA983472F
:10A2B000F4FD138701478A07BA97032744FE98C322
:10A2C0008347F4FD91078A07BE868347F4FD138711
:10A2D00081478A07BA979C433E86B7A7001C93859F
:10A2E000E7183685EFF09FA28347F4FD91078A07B0
:10A2F000938617008347F4FD138701478A07BA97AF
:10A300009C433E86B7A7001C9385E7163685EFF081
:10A31000FF9F8347F4FD91078A073E85F13B834702
:10A32000F4FD91078A0785073E85F933B7574C003E
:10A33000138707B4832784FDB357F7022320F4FE65
:10A34000832704FE13F7F70F2382E142832704FEDD
:10A35000A18313F7F70F93874142A380E70081475A
:10A360003E85B250225445618280011122CE0010F8
:10A370002326A4FE2324B4FE032784FE8327C4FEE1
:10A380001CC30100724405618280797122D60018D5
:10A39000232EA4FC8327C4FD9C432326F4FE83279D
:10A3A000C4FE3E85325445618280011106CE22CC26
:10A3B00000102326A4FE2324B4FE032784FEB767DF
:10A3C000101A9107BA97BE850325C4FE793F010094
:10A3D000F240624405618280011106CE22CC001059
:10A3E0002326A4FE0327C4FEB767101A9107BA9765
:10A3F0003E85613FAA873E85F240624405618280C6
:10A40000797106D622D40018232EA4FC0327C4FD9C
:10A410009307F00F63CCE7048327C4FD63C80704E8
:10A420000327C4FD9357F741ED833E977D8BB30718
:10A43000F7402326F4FE8327C4FD13D7F7417D8B15
:10A44000BA9795878A072324F4FE032584FE69378B
:10A45000AA8605478327C4FEB317F70093C7F7FF03
:10A46000F58F832584FE3E85893711A00100B25007
:10A47000225445618280411122C6000883A781428F
:10A480001387170023A4E142010032444101828076
:10A49000411122C6000883A781421387071023A415
:10A4A000E1420100324441018280411122C600088C
:10A4B00003A78142C1673E9723A4E14201003244D1
:10A4C00041018280411122C6000803A78142B707DB
:10A4D00000013E9723A4E142010032444101828001
:10A4E000797106D622D40018AA87232CB4FCA30FB6
:10A4F000F4FCB727101A2326F4FE0347F4FDB72710
:10A50000340093873704BA979E072324F4FE8347C9
:10A51000F4FD138741498A07BA979C4389EB834727
:10A52000F4FD1387C1488A07BA979C4399C38547AE
:10A5300099AC8347F4FD95EB8327C4FE9C4713E752
:10A5400047008327C4FE98C78327C4FE9C4713F7A0
:10A55000B7FF8327C4FE98C78327C4FE9C4313E735
:10A5600047008327C4FE98C335A80347F4FD8547F9
:10A57000631AF7028327C4FE9C4713E787008327EB
:10A58000C4FE98C78327C4FE9C4713F777FF832731
:10A59000C4FE98C78327C4FE9C4313E78700832724
:10A5A000C4FE98C30D4681450545EFE0EFEA23223E
:10A5B000A4FE832744FE81E77370043001A0814626
:10A5C00001468145032544FEEFE00FF88347F4FD83
:10A5D000138741498A07BA97032744FE98C30D465B
:10A5E00081450545EFE04FE72322A4FE832744FE83
:10A5F00081E77370043001A081460146814503253F
:10A6000044FEEFE06FF48347F4FD1387C1488A07E7
:10A61000BA97032744FE98C30D4681450545EFE0F0
:10A62000AFE32322A4FE832744FE81E77370043046
:10A6300001A0814601468145032544FEEFE0CFF0AD
:10A640008347F4FD1387C1498A07BA97032744FE5D
:10A6500098C30D4681450545EFE00FE02322A4FE97
:10A66000832744FE81E77370043001A081460146D0
:10A670008145032544FEEFE02FED8347F4FD13876A
:10A6800001488A07BA97032744FE98C323A40142CE
:10A690008347F4FD89078A07BE868347F4FD138745
:10A6A00041498A07BA979C433E86B7A7001C938509
:10A6B00007493685EFF08FE58347F4FD89078A0760
:10A6C000938617008347F4FD1387C1488A07BA971A
:10A6D0009C433E86B7A7001C938567473685EFF0FD
:10A6E000EFE28347F4FD89078A078907BE8683471F
:10A6F000F4FD1387C1498A07BA979C433E86B7A7E2
:10A70000001C9385A74A3685EFF04FE08347F4FDA0
:10A7100089078A078D07BE868347F4FD13870148A2
:10A720008A07BA979C433E86B7A7001C9385474C7F
:10A730003685EFF0AFDD8347F4FD89078A073E8554
:10A74000C1318347F4FD89078A0785073E854D3966
:10A750008347F4FD89078A0789073E85553183477A
:10A76000F4FD89078A078D073E855939B7574C0094
:10A77000138707B4832784FDB357F70213F7F70F46
:10A780002384E14881473E85B2502254456182804E
:10A79000797122D60018AA87232CB4FC232AC4FC82
:10A7A000A30FF4FCB727101A2326F4FE0347F4FD89
:10A7B000B727340093873704BA979E072324F4FE03
:10A7C000832784FDB9EB8347F4FD95E38327C4FE1B
:10A7D0009C4713E747008327C4FE98C78327C4FE1E
:10A7E0009C4713F7B7FF8327C4FE98C715A80347F4
:10A7F000F4FD85476316F7028327C4FE9C4713E7E1
:10A8000087008327C4FE98C78327C4FE9C4713F79D
:10A8100077FF8327C4FE98C721A07370043001A07E
:10A82000010081473E85325445618280797122D68C
:10A830000018AA872E87A30FF4FCBA87230FF4FC15
:10A840000347F4FDB727340093873704BA979E0770
:10A850002326F4FE938741002324F4FE232204FEE2
:10A860008327C4FE03C787003D9B2384E70083271B
:10A87000C4FE03C787013D9B238CE7008327C4FEEA
:10A8800003C787023D9B2384E7028327C4FE03C7D7
:10A890008700136707042384E7008327C4FE03C7E8
:10A8A000870113670704238CE7008327C4FE03C7CF
:10A8B0008702136707042384E70283C6814883273E
:10A8C00084FE138747002324E4FE368798C303479A
:10A8D000E4FDB7070010B366F700832784FE1387F3
:10A8E00047002324E4FE368798C3832784FE13871A
:10A8F00047002324E4FE370707201307F70998C30E
:10A90000832784FE138747002324E4FE370747701C
:10A910000D0798C3832784FE138747002324E4FE92
:10A9200037070090050798C3138741048327C4FEA7
:10A9300098C38327C4FE1147D8C38327C4FE03C727
:10A940008700136707012384E700138741008327EB
:10A95000C4FE98D3032784FE93874100B307F740D2
:10A960003E878327C4FED8D38327C4FE03C787024C
:10A97000136707012384E70201008327C4FEDC4339
:10A98000EDFF938741049C432322F4FE832744FE7A
:10A990003E85325445618280011122CE001023266B
:10A9A000A4FE2324B4FE032784FE8327C4FE1CC315
:10A9B0000100724405618280797122D60018232E2D
:10A9C000A4FC8327C4FD9C432326F4FE8327C4FEF6
:10A9D0003E85325445618280011106CE22CC0010A2
:10A9E0002326A4FE2324B4FE032784FEB767101A8F
:10A9F0009107BA97BE850325C4FE793F0100F24056
:10AA0000624405618280011106CE22CC001023260B
:10AA1000A4FE0327C4FEB767101A9107BA973E85B4
:10AA2000613FAA873E85F240624405618280797168
:10AA300006D622D40018232EA4FC0327C4FD9307B6
:10AA4000F00F63CCE7048327C4FD63C80704032722
:10AA5000C4FD9357F741ED833E977D8BB307F740D5
:10AA60002326F4FE8327C4FD13D7F7417D8BBA97C5
:10AA700095878A072324F4FE032584FE6937AA8676
:10AA800005478327C4FEB317F70093C7F7FFF58F79
:10AA9000832584FE3E85893711A00100B2502254DF
:10AAA00045618280011122CE00102326A4FE0327D7
:10AAB000C4FE99476313F7041DA883A741A383C766
:10AAC000470313F6F70F83A701439386170023A8C4
:10AAD000D14213178601618793864105B69723807B
:10AAE000E70083A7014313F7F70723A8E142B7273D
:10AAF000101A938707139C43E9F30327C4FE894781
:10AB00006311F7041DA883A701A383C7470313F6A6
:10AB1000F70F83A781439386170023ACD142131705
:10AB2000860161879386410DB6972380E70083A74E
:10AB3000814313F7F70723ACE14283A701A39C5B92
:10AB4000F9F30100724405618280797106D622D43E
:10AB50000018AA87232CB4FCA30FF4FCB727101A03
:10AB60002326F4FE8347F4FD1387414A8A07BA97E8
:10AB70009C4389EB8347F4FD1387C14A8A07BA9740
:10AB80009C4399C3854765AA8327C4FE9C47034716
:10AB9000F4FD85463397E6005D8F8327C4FE98C792
:10ABA0008327C4FE9C470347F4FD85463397E600A0
:10ABB0001347F7FF7D8F8327C4FE98C78327C4FE02
:10ABC0009C430347F4FD85463397E6005D8F83275A
:10ABD000C4FE98C30D4681450545EFE0EF87232469
:10ABE000A4FE832784FE81E77370043001A08146B0
:10ABF00001468145032584FEEFE00F958347F4FD70
:10AC00001387414A8A07BA97032784FE98C30D46E3
:10AC100081450545EFE04F842324A4FE832784FE6D
:10AC200081E77370043001A0814601468145032508
:10AC300084FEEFE06F918347F4FD1387C14A8A07D2
:10AC4000BA97032784FE98C38347F4FD8A07938647
:10AC500027008347F4FD1387414A8A07BA979C432C
:10AC60003E86B7B7001C938547AA3685EFF00F8A5A
:10AC70008347F4FD8A07938617008347F4FD138703
:10AC8000C14A8A07BA979C433E8681453685EFF0D4
:10AC9000EF878347F4FD8A0789073E85493B834751
:10ACA000F4FD8A0785073E8559330347F4FDB7272E
:10ACB000340093871704BA979E072322F4FEB757F0
:10ACC0004C00138707B4832784FDB357F70213970B
:10ACD00007014183832744FE2393E702832744FE31
:10ACE000D85313676700D8D3832744FE03C7C7022E
:10ACF000136717002386E702832744FED8531367A0
:10AD00000710D8D3832744FED85313670720D8D31E
:10AD1000832744FED85313670702D8D30347F4FDB3
:10AD200085476316F70023A6014223A80142834703
:10AD3000F4FD89E723AA014223AC014281473E8505
:10AD4000B250225445618280397122DE80002A8807
:10AD50002E85B2853686BA863E87C287A307F4FC65
:10AD6000AA872307F4FCAE872316F4FCB287A30559
:10AD7000F4FCB6872305F4FCBA87A304F4FCA3070C
:10AD800004FE232404FE232204FE232004FE834722
:10AD9000A4FC8D8BA30FF4FC834794FC230FF4FCDD
:10ADA0008347F4FC91E7B707101A2324F4FE1DA88B
:10ADB0000347F4FC85476319F700B707101A938718
:10ADC00007022324F4FE39A80347F4FC89476319DA
:10ADD000F700B707101A938707042324F4FE19A07D
:10ADE000232404FE832784FE638B07180347E4FCB7
:10ADF000914763F2E7188357C4FC638A0716035729
:10AE0000C4FC9307F07F63E4E7160347B4FCBD4737
:10AE100063EBE714832784FE9843B70708005D8F30
:10AE2000832784FE98C3832784FE9C4313E747004F
:10AE3000832784FE98C3832784FE9C4313F7B7FFC0
:10AE4000832784FE98C3832784FE9843B707FCFFBB
:10AE5000FD177D8F832784FE98C3832784FE984344
:10AE60008347F4FD5D8F832784FE98C3832784FE88
:10AE70009C430347E4FD12075D8F832784FE98C33C
:10AE8000832784FE9843832784FE98C3832784FE08
:10AE9000910723A00700232004FE8357C4FC9207D8
:10AEA0003E87832704FED98F2320F4FE032704FE68
:10AEB000B7070008D98F2320F4FE8347B4FCF207BC
:10AEC0003E87832704FED98F2320F4FE832784FE48
:10AED000A107032704FE98C3832784FEB10723A09C
:10AEE0000700832784FEC1071307400698C3832702
:10AEF00084FED1071307902698C3832784FE9C43C2
:10AF000013E74700832784FE98C3832784FE984372
:10AF1000B70704005D8F832784FE98C30DA08327A5
:10AF200044FE85072322F4FE032744FEC1676368BD
:10AF3000F7009547A307F4FE232204FE39A08327D8
:10AF400084FEC1079C43E3DC07FC8347F4FE85EFE6
:10AF5000832784FE9843B707F8FFFD177D8F83276B
:10AF600084FE98C30DA08547A307F4FE29A889474E
:10AF7000A307F4FE11A88D47A307F4FE31A0914763
:10AF8000A307F4FE11A001008347F4FE3E8572542E
:10AF900021618280397106DE22DC8000232004FEDC
:10AFA000B747101A232EF4FC8327C4FD054723AEB0
:10AFB000E70E232C04FCA30704FEEFF04F81B70734
:10AFC000101A232AF4FCB707101A938707022328C4
:10AFD000F4FCB707101A938707042326F4FC85476F
:10AFE0000147854613068002A9450145B13B8947C3
:10AFF0000147854613068002A9450545EFF0DFD4D9
:10B0000091470147854613068002A9450945EFF09F
:10B01000BFD3232404FE1DA813874163832784FE26
:10B020008A07BA9737B7001C1307472198C3B7F7A9
:10B03000001C1387C7E1832784FE8A07BA9723A0E1
:10B040000700832784FE85072324F4FE032784FE5C
:10B05000FD47E3D3E7FC9387416337B7001C130731
:10B06000871CD8CF9387416337A7001C130767D984
:10B07000D8D7EFE03FF02D45EFE0BFC5EFE05FDB55
:10B08000F3274030BE808687232CF4FCA30304FE04
:10B0900031A8034774FEF167938507203A85EFF0E6
:10B0A000DFAA834774FE8507A303F4FE034774FEFB
:10B0B0008947E310F7FE230304FE39A8034764FE23
:10B0C000B7270600938507A83A85EFF04F8E834790
:10B0D00064FE85072303F4FE034764FE8947E31FEC
:10B0E000F7FCA30704FE45A88347F4FE3E85D52A56
:10B0F0000347F4FEB72726009385075A3A85EFF0F9
:10B100002FBE8347F4FE014681453E85EFF04FE8B0
:10B110008347F4FE81453E85EFF04FF12320A4FEE6
:10B12000032704FEFD576305F700832704FE89EB20
:10B130000347F4FE9387C143BA972380070099A081
:10B140000347F4FE9387C143BA9705472380E7007E
:10B15000832704FE13F7F70F93070002631DF70020
:10B160000347F4FE93870144BA9705472380E7001D
:10B170002384014401A80347F4FE93870144BA974E
:10B18000238007008347F4FE3E85D1248347F4FEE5
:10B190008507A307F4FE0347F4FE8547E3F6E7F4CB
:10B1A0000545EFE07FACEFE0DFA5AA873E87930778
:10B1B00020066306F70013052006EFE0DFA6010076
:10B1C000F250625421618280011106CE22CC00101F
:10B1D0002326A4FE9D2BC9217D230100F240624459
:10B1E00005618280011106CE22CC00102326A4FE28
:10B1F0008327C4FEFD8B138741638A07BA97984360
:10B200008327C4FEFD8B3E8502970100F240624415
:10B2100005618280797122D626D40018232EA4FCE1
:10B22000232604FE0327C4FDC947630CF700032748
:10B23000C4FDCD476307F7000327C4FDFD4763192D
:10B24000F70483A741441387170023A2E14403A70F
:10B250004144CD4763F3E706F3274030BE84A68719
:10B260002326F4FE0327C4FE8327C4FDB357F7004B
:10B27000858BA1C705478327C4FDB317F700232497
:10B28000F4FE832784FEF3B747302324F4FE35A071
:10B29000B7F7001C1387C7E18327C4FD8A07BA9755
:10B2A0009C4313871700B7F7001C9386C7E18327D9
:10B2B000C4FD8A07B69798C311A00100010032545B
:10B2C000A25445618280411106C622C40008B167BC
:10B2D00013850735EFE03FD20100B240224441011F
:10B2E0008280797106D622D426D20018AA87A30FAD
:10B2F000F4FCA30704FE8347F4FD6398070EA3073D
:10B3000004FE81A08347F4FEB50793F7F70F83444B
:10B31000F4FE3E85EFE0FFBCAA873E879387411588
:10B32000A6972380E7008347F4FEB50793F7F70F4E
:10B3300081453E85EFE09FB48347F4FE8507A30770
:10B34000F4FE0347F4FE8D47E3FEE7FAA30704FE8D
:10B3500081A08347F4FECD0793F7F70F8344F4FEF3
:10B360003E85EFE01FB8AA873E8793874115A697D1
:10B370002380E7008347F4FECD0793F7F70F81455D
:10B380003E85EFE0BFAF8347F4FE8507A307F4FED9
:10B390000347F4FE8547E3FEE7FAA30704FE81A016
:10B3A0008347F4FEE90793F7F70F8344F4FE3E85E5
:10B3B000EFE03FB3AA873E8793874115A697238086
:10B3C000E7008347F4FEE90793F7F70F85453E85CD
:10B3D000EFE0DFAA8347F4FE8507A307F4FE0347E7
:10B3E000F4FE8947E3FEE7FAA9A80347F4FD854781
:10B3F0006319F704A30704FE81A08347F4FEF50751
:10B4000093F7F70F8344F4FE3E85EFE09FADAA87E4
:10B410003E8793874115A6972380E7008347F4FE74
:10B42000F50793F7F70F85453E85EFE03FA5834786
:10B43000F4FE8507A307F4FE0347F4FE9D47E3FEF1
:10B44000E7FA0100B250225492544561828079712A
:10B4500006D622D40018AA87A30FF4FCA30704FE83
:10B460008347F4FDCDEBA30704FE35A08347F4FE2C
:10B47000B50793F6F70F8347F4FE13874115BA9784
:10B4800083C70700BE853685EFE05F9F8347F4FEE4
:10B490008507A307F4FE0347F4FE8D47E3F8E7FCB6
:10B4A000A30704FE35A08347F4FECD0793F6F70FFC
:10B4B0008347F4FE13874115BA9783C70700BE85FB
:10B4C0003685EFE0BF9B8347F4FE8507A307F4FEB4
:10B4D0000347F4FE8547E3F8E7FCA30704FE35A025
:10B4E0008347F4FEE90793F6F70F8347F4FE1387CB
:10B4F0004115BA9783C70700BE853685EFE01F98D0
:10B500008347F4FE8507A307F4FE0347F4FE89474B
:10B51000E3F8E7FC99A00347F4FD8547631FF702B2
:10B52000A30704FE35A08347F4FEF50793F6F70F53
:10B530008347F4FE13874115BA9783C70700BE857A
:10B540003685EFE0BF938347F4FE8507A307F4FE3B
:10B550000347F4FE9D47E3F8E7FC0100B250225494
:10B5600045618280797122D60018AA872E87232C04
:10B57000C4FCA30FF4FCBA87231EF4FC0347F4FDBC
:10B58000B727340093871704BA979E072326F4FE43
:10B5900001008327C4FE9C53858B93F7F70FF5FBBF
:10B5A000032784FD8327C4FE98CB0357C4FD83275C
:10B5B000C4FED8CB8327C4FE03C7870113670701E6
:10B5C000238CE70081473E8532544561828001111A
:10B5D00006CE22CC00102326A4FE0325C4FEEFD005
:10B5E0000FAFAA87C207C1830326C4FEBE850145EB
:10B5F000953F01003E85F240624405618280011161
:10B6000006CE22CC0010232604FEEFF0DFCBF3277A
:10B6100050302326F4FE73600430856793870788D3
:10B6200073A04730B7E7001C1385C79CEF0050514B
:10B630001305803EEF10D005F5B7411106C622C4B0
:10B640000008EFF03F95EF2040060100B240224491
:10B6500041018280411122C60008737004300290BB
:10B6600001A0011122CE00102326A4FE2324B4FE43
:10B6700073700430029001A0411122C6000801003D
:10B68000324441018280411122C6000883A7C1448F
:10B690003E85324441018280011106CE22CC001049
:10B6A00083A7C1441387170023A6E144EF10C067A6
:10B6B0002326A4FE8327C4FEBC431387F7FF8327FA
:10B6C000C4FEB8C38327C4FEBC4389EB8327C4FEF2
:10B6D000D85F8327C4FEB8C3EF10E06BEF1030646F
:10B6E0000100F240624405618280411122C60008D7
:10B6F0000100324441018280011106CE22CC0010AB
:10B700002326A4FEDD37FDBF411106C622C4000872
:10B71000930800021D48930700081387811D814686
:10B7200037B6001C1306866FB7E5001C9385059E8F
:10B7300013850116EF10A05813850116EF10E05F76
:10B740000100B240224441018280011106CE22CC88
:10B750000010EFC0FFFD2326A4FEB7F7001C83C72F
:10B76000C7E993F7F70F850713F7F70FB7F7001C33
:10B77000238EE7E80325C4FEEFC0FFFB0100F24083
:10B78000624405618280011106CE22CC0010EFC018
:10B790003FFA2326A4FEB7F7001C83C7C7E993F737
:10B7A000F70FFD1713F7F70FB7F7001C238EE7E825
:10B7B0000325C4FEEFC03FF80100F240624405617A
:10B7C0008280797122D60018232EA4FC232CB4FC8D
:10B7D000232AC4FC8327C4FD2326F4FE832784FD8B
:10B7E00093F7F70F2322F4FE032744FD8D4763FEF2
:10B7F000E70C8327C4FD8D8BE9EB8327C4FD23244D
:10B80000F4FE832744FEA207032744FED98F23209A
:10B81000F4FE832704FEC207032704FED98F2320EA
:10B82000F4FE91A8832784FE138747002324E4FEB7
:10B83000032704FE98C3832784FE1387470023242D
:10B84000E4FE032704FE98C3832784FE1387470082
:10B850002324E4FE032704FE98C3832784FE138772
:10B8600047002324E4FE032704FE98C3832744FDF6
:10B87000C117232AF4FC032744FDBD47E3E4E7FA9C
:10B8800039A8832784FE138747002324E4FE032777
:10B8900004FE98C3832744FDF117232AF4FC0327F1
:10B8A00044FD8D47E3EFE7FC832784FE2326F4FE67
:10B8B00029A88327C4FE138717002326E4FE032745
:10B8C00044FE620761872380E700832744FD1387D6
:10B8D000F7FF232AE4FCF1FF8327C4FD3E853254A1
:10B8E00045618280797122D60018232EA4FC232C76
:10B8F000B4FC232AC4FC832744FDB5C78327C4FDB9
:10B900002326F4FE832784FD2324F4FE032784FEEC
:10B91000930717002324F4FE8327C4FE93861700A1
:10B920002326D4FE030707002380E7008387070050
:10B930009DE309A88327C4FE138717002326E4FE8E
:10B9400023800700832744FDFD17232AF4FC832767
:10B9500044FDEDF309A8832744FDFD17232AF4FCD9
:10B96000832744FDC5F78327C4FD3E8532544561D6
:10B970008280411106C622C40008B7E7001C138567
:10B98000879EEF00F01BB7E7001C1385479FEF0071
:10B99000301BB7E7001C138787A1954605468D45E8
:10B9A000B7E7001C138547A2EF009019B7E7001C0A
:10B9B000138547A4EF00D0180100B2402244410192
:10B9C0008280797122D60018232EA4FC232CB4FC8B
:10B9D000032784FDA9476317F7028327C4FD9C430F
:10B9E0003E87A947B377F7022326F4FE8327C4FDD9
:10B9F0009C433E87A947B357F7023E878327C4FD80
:10BA000098C339A88327C4FD9C43BD8B2326F4FE2D
:10BA10008327C4FD9C4391833E878327C4FD98C33D
:10BA20008327C4FE3E85325445618280011122CEB7
:10BA300026CC00102326A4FE81441DA0A6878A07D9
:10BA4000A69786073E868327C4FE9C4393861700ED
:10BA50000327C4FE14C383870700B297938407FDAE
:10BA60008327C4FE9C4383870700938707FD3E8797
:10BA7000A547E3F5E7FCA6873E857244E2440561ED
:10BA800082805D7186C6A2C4A6C2CAC08008232671
:10BA9000A4FC2324B4FC2322C4FC2320D4FC232EA6
:10BAA000E4FA232CF4FA232A04FB832784FB2324BF
:10BAB000F4FE8324C4FB832744FB93F7070491C758
:10BAC000B7E7001C938787CC29A0B7E7001C9387B2
:10BAD000C7CD2322F4FE832744FBC18B91C7832764
:10BAE00044FBF99B232AF4FA832744FB858B81C707
:10BAF0009307000319A093070002A301F4FEA30714
:10BB000004FE832744FB898BA9C3832744FC63DDA0
:10BB100007009307D002A307F4FE832744FCB30772
:10BB2000F0402322F4FC15A0832744FB918B91C79E
:10BB30009307B002A307F4FE09A8832744FBA18B57
:10BB400089C793070002A307F4FE0149832744FC39
:10BB5000B1E3CA8713891700130704FFBA971307C5
:10BB600000032380E7FE15A8930744FC832504FC0B
:10BB70003E85EFF01FE5AA873E87832744FE3E9768
:10BB8000CA871389170003070700930604FFB697B7
:10BB90002380E7FE832744FCE1FB832784FB63D4F7
:10BBA0002701232C24FB832784FB9D8C832744FBC4
:10BBB000C58B95EF8307F4FE95C763559002FD147E
:10BBC00015A00327C4FC832784FC6378F700832730
:10BBD000C4FC130700022380E7008327C4FC850709
:10BBE0002326F4FCA6879384F7FFE34CF0FC83073D
:10BBF000F4FE9DC30327C4FC832784FC6378F7000D
:10BC00008327C4FC0347F4FE2380E700FD14832749
:10BC1000C4FC85072326F4FC832744FBC18BB1EBCE
:10BC200015A00327C4FC832784FC6378F7008327CF
:10BC3000C4FC034734FE2380E7008327C4FC850748
:10BC40002326F4FCA6879384F7FFE34CF0FC15A0B1
:10BC50000327C4FC832784FC6378F7008327C4FC94
:10BC6000130700032380E7008327C4FC85072326EE
:10BC7000F4FC832784FB1387F7FF232CE4FAE349C2
:10BC8000F9FC2DA00327C4FC832784FC637BF70009
:10BC9000930704FFCA97038707FE8327C4FC23800A
:10BCA000E7008327C4FC85072326F4FCCA87138991
:10BCB000F7FF6357F002832784FEE9F715A00327F7
:10BCC000C4FC832784FC6378F7008327C4FC130734
:10BCD00000022380E7008327C4FC85072326F4FCA9
:10BCE000A6879384F7FFE34CF0FC8327C4FC3E85D2
:10BCF000B640264496440649616182805D7186C6DD
:10BD0000A2C48008232EA4FA232CB4FA232AC4FA4E
:10BD10002328D4FA8327C4FB2320F4FE0327C4FB83
:10BD2000832784FBBA97232EF4FC0327C4FD8327C3
:10BD3000C4FB6373F75CFD57232EF4FC0327C4FD9B
:10BD40008327C4FBB307F740232CF4FA75A383279A
:10BD500044FB03870700930750026306F70203279B
:10BD600004FE8327C4FD637AF700832744FB03871F
:10BD70000700832704FE2380E700832704FE85074E
:10BD80002320F4FEADA3230B04FC832744FB85078B
:10BD9000232AF4FA832744FB038707009307D00282
:10BDA0006319F700834764FD93E70701230BF4FC55
:10BDB000E9BF832744FB038707009307B002631999
:10BDC000F700834764FD93E74700230BF4FC75BF3E
:10BDD000832744FB03870700930700026319F700DA
:10BDE000834764FD93E78700230BF4FC79BF832727
:10BDF00044FB03870700930730026319F70083476A
:10BE000064FD93E70702230BF4FC41B7832744FB4F
:10BE100003870700930700036319F700834764FD56
:10BE200093E71700230BF4FC8DB70100FD5723287F
:10BE3000F4FC832744FB83870700938707FD3E8735
:10BE4000A54763EAE700930744FB3E85EFF01FBE7A
:10BE50002328A4FCB9A0832744FB0387070093078A
:10BE6000A0026310F704832744FB8507232AF4FA12
:10BE7000832704FB138747002328E4FA9C432328E5
:10BE8000F4FC832704FD63DE0700832704FDB3076A
:10BE9000F0402328F4FC834764FD93E70701230B5C
:10BEA000F4FCFD572326F4FC832744FB038707009B
:10BEB0009307E0026315F706832744FB8507232ACF
:10BEC000F4FA832744FB83870700938707FD3E87A7
:10BED000A54763EAE700930744FB3E85EFF01FB5F3
:10BEE0002326A4FC3DA0832744FB03870700930778
:10BEF000A0026310F702832744FB8507232AF4FA84
:10BF0000832704FB138747002328E4FA9C43232656
:10BF1000F4FC8327C4FC63D40700232604FCA30A93
:10BF200004FC832744FB0387070093078006630A0A
:10BF3000F700832744FB038707009307C006631DB0
:10BF4000F700832744FB83870700A30AF4FC8327B9
:10BF500044FB8507232AF4FAA947A30BF4FC8327A3
:10BF600044FB838707009387B7FD1307300563679A
:10BF7000F72813972700B7E7001C938787A7BA977E
:10BF80009C438287834764FDC18B85EF15A00327FF
:10BF900004FE8327C4FD6378F700832704FE13079C
:10BFA00000022380E700832704FE85072320F4FE98
:10BFB000832704FDFD172328F4FC832704FDE348B1
:10BFC000F0FC832704FB138747002328E4FA9C43F3
:10BFD000A305F4FC032704FE8327C4FD6378F70060
:10BFE000832704FE0347B4FC2380E700832704FE75
:10BFF00085072320F4FE15A0032704FE8327C4FD34
:10C000006378F700832704FE130700022380E7000C
:10C01000832704FE85072320F4FE832704FDFD17F4
:10C020002328F4FC832704FDE348F0FCC9A48327FC
:10C0300004FB138747002328E4FA9C43232CF4FCD9
:10C04000832784FD99E7B7E7001C938707A7232C74
:10C05000F4FC232204FE31A0832744FE850723221B
:10C06000F4FE032744FE832704FD630AF7008327B9
:10C0700044FE032784FDBA9783870700F1FF8327D7
:10C08000C4FC635CF000032744FE8327C4FC63D632
:10C09000E7008327C4FC2322F4FE834764FDC18BA1
:10C0A0008DEF15A0032704FE8327C4FD6378F700F6
:10C0B000832704FE130700022380E700832704FE82
:10C0C00085072320F4FE832704FD1387F7FF232829
:10C0D000E4FC032744FEE347F7FC232404FE35A8D1
:10C0E000032704FE8327C4FD637AF700832784FDBA
:10C0F00003870700832704FE2380E700832704FECD
:10C1000085072320F4FE832784FD8507232CF4FC78
:10C11000832784FE85072324F4FE032784FE8327D8
:10C1200044FEE34FF7FA15A0032704FE8327C4FD5E
:10C130006378F700832704FE130700022380E700DB
:10C14000832704FE85072320F4FE832704FD13873D
:10C15000F7FF2328E4FC032744FEE347F7FC41AA4A
:10C16000032704FDFD57631BF700A1472328F4FCB8
:10C17000834764FD93E71700230BF4FC832704FB3C
:10C18000138747002328E4FA9C433E86834764FDD7
:10C190003E888327C4FC032704FDC1468325C4FDD4
:10C1A000032504FEEFF0FF8D2320A4FE89A20327C0
:10C1B00004FE8327C4FD6378F700832704FE13077A
:10C1C00050022380E700832704FE85072320F4FE26
:10C1D00039AAA147A30BF4FC59A0834764FD93E758
:10C1E0000704230BF4FCC147A30BF4FC8DA8834781
:10C1F00064FD93E72700230BF4FC8DA0032704FEC6
:10C200008327C4FD6378F700832704FE13075002D9
:10C210002380E700832704FE85072320F4FE83277D
:10C2200044FB838707008DC7032704FE8327C4FDD3
:10C23000637AF700832744FB03870700832704FE04
:10C240002380E700832704FE85072320F4FE45A012
:10C25000832744FBFD17232AF4FA51A80100034762
:10C2600054FD9307C006631CF700832704FB138764
:10C2700047002328E4FA9C432326F4FEB1A0034799
:10C2800054FD930780066318F702832704FB138786
:10C2900047002328E4FA9C43C207C1832326F4FE07
:10C2A000834764FD898B8DC38327C4FEC207C18782
:10C2B0002326F4FE11A8832704FB138747002328B5
:10C2C000E4FA9C432326F4FE0326C4FE834674FD51
:10C2D000834764FD3E888327C4FC032704FD832530
:10C2E000C4FD032504FEEFF0CFF92320A4FE83272D
:10C2F00044FB8507232AF4FA832744FB838707003E
:10C30000E39707A4832784FB8DC3032704FE8327B9
:10C31000C4FD6377F700832704FE2380070031A064
:10C320008327C4FDFD1723800700032704FE83270E
:10C33000C4FBB307F7403E85B64026446161828066
:10C340005D7106D622D40018232EA4FC4CC010C464
:10C3500054C418C85CC8232C0401232E140193076D
:10C36000040291172324F4FE832784FEBE8603264D
:10C37000C4FD9305F00713858125EFF03F98AA8748
:10C380002326F4FE0327C4FE9307F00763F6E700B5
:10C390009307F0072326F4FE13858125EFF02FA3E2
:10C3A0000100B250225461618280011122CE00103E
:10C3B0002326A4FE8327C4FE99E3814779A083271F
:10C3C000C4FE93F7F70F91CF8327C4FE93F7F70FBF
:10C3D00037E7001C130787BCBA9783C70700850798
:10C3E000ADA00327C4FEC167938707F0F98F99CFEB
:10C3F0008327C4FEA18793F7F70F37E7001C1307C5
:10C4000087BCBA9783C70700A50781A00327C4FE8E
:10C41000B707FF00F98F99CF8327C4FEC18793F731
:10C42000F70F37E7001C130787BCBA9783C70700CD
:10C43000C50721A88327C4FEE18337E7001C130743
:10C4400087BCBA9783C70700E5073E85724405613C
:10C450008280011122CE00102326A4FE2324B4FEE4
:10C460008327C4FE9C43032784FED8C38327C4FECE
:10C470009843832784FE98C38327C4FE032784FE42
:10C4800098C3832784FE0327C4FED8C301007244E7
:10C4900005618280011122CE00102326A4FE83278D
:10C4A000C4FE9C430327C4FE5843D8C38327C4FE5D
:10C4B000DC430327C4FE184398C38327C4FE032725
:10C4C000C4FED8C38327C4FED8438327C4FE98C3C1
:10C4D0000100724405618280797122D60018232EF2
:10C4E000A4FC232604FE0DA81387019E8327C4FE07
:10C4F0009207BA979C430327C4FD631AF70083276A
:10C50000C4FE139747009387019EBA9721A88327FB
:10C51000C4FE85072326F4FE0327C4FE8D47E3D51A
:10C52000E7FC81473E85325445618280797106D6A9
:10C5300022D426D20018232EA4FC232CB4FC232AB8
:10C54000C4FC232604FE032584FD79372324A4FE9E
:10C550001129832784FEDC432326F4FE19A88327B0
:10C56000C4FED1172322F4FE8327C4FE9C43232656
:10C57000F4FE832784FE91070327C4FEE311F7FE30
:10C580002929832784FD93F7F70F93E707F813F71B
:10C59000F70F8327C4FD2384E7008327C4FD2146CA
:10C5A000832544FD3E85EFF0EFB3EFC06F98AA847A
:10C5B000832784FE138747008327C4FDB107BE8508
:10C5C0003A85EFF01FE92685EFC0EF960100B250E3
:10C5D0002254925445618280011106CE22CC26CA93
:10C5E00000102326A4FE8327C4FE23840700EFC087
:10C5F0002F94AA848327C4FEB1073E85EFF09FE9FC
:10C600002685EFC04F930100F2406244D244056199
:10C610008280011122CE00102326A4FE8327C4FEAF
:10C6200083C78700E207E18763D40700854711A02D
:10C6300081473E85724405618280011122CE00103F
:10C640002326A4FE8327C4FE0327C4FED8C3832762
:10C65000C4FED8438327C4FE98C301007244056119
:10C660008280011122CE00102326A4FE2324B4FED2
:10C670008327C4FEDC43032784FE98C38327C4FEBC
:10C68000D843832784FED8C38327C4FE032784FEB0
:10C69000D8C3832784FE0327C4FE98C301007244D5
:10C6A00005618280011122CE00102326A4FE83277B
:10C6B000C4FE9C430327C4FE5843D8C38327C4FE4B
:10C6C000DC430327C4FE184398C38327C4FE032713
:10C6D000C4FED8C38327C4FED8438327C4FE98C3AF
:10C6E0000100724405618280011122CE00102326D0
:10C6F000A4FE8327C4FE9C430327C4FEB307F74070
:10C7000093B7170093F7F70F3E8572440561828057
:10C71000411106C622C426C2000823980144814460
:10C7200019A813973400B7F7001C938707EABA9744
:10C730003E85213785049D47E3D597FEB7F7001C5A
:10C740001D472380E7EE23AA0144B7F7001C23A26C
:10C7500007EEB7F7001C138587EEEFF01FEE010020
:10C76000B2402244924441018280411106C622C453
:10C770000008B7F7001C83A747EE3E85EFF0FFC225
:10C78000AA87FD17BE80B7F7001C138707EA9397A7
:10C790003000BA979C439380C7FE23AA1144938725
:10C7A000C0013E85EFB09FF90100B2402244410133
:10C7B0008280011106CE22CC0010EFB07FF7232635
:10C7C000A4FE83970145C1EFB7F7001C83A747EE8E
:10C7D0003E85EFF09FBDAA87FD17BE80B7F7001C0E
:10C7E000138707EA93973000BA979C43B117232425
:10C7F000F4FE83A74145032784FE6302F70613F77F
:10C80000F00FB7F7001C2380E7EE83A741452322F2
:10C81000F4FE032784FE23AAE144B7F7001C83C774
:10C82000C7E993F7F70F8DE3832744FEF1073E87AF
:10C83000832784FEF107BE853A85EFB0FFF003251C
:10C84000C4FEEFB05FEF05A0832744FEF1073E87EB
:10C85000832784FEF107BE853A85EF1080110325FA
:10C86000C4FEEFB05FEDF2406244056182800111C9
:10C8700006CE22CC26CA00102326A4FEEFB05FEB22
:10C88000AA848327C4FE83C74703E207E187C19BCD
:10C89000E207E18793E71700E207E18713F7F70F55
:10C8A0008327C4FE238AE7028327C4FE83C7570376
:10C8B00013973700B7F7001C938707EA3E97832743
:10C8C000C4FED107BE853A85EFF0BFD98327C4FEE9
:10C8D000985FB7F7001C83A747EE5D8FB7F7001C82
:10C8E00023A2E7EE2685EFB01FE50100F240624487
:10C8F000D24405618280011106CE22CC26CA0010E6
:10C900002326A4FEEFB0DFE2AA848327C4FED1076A
:10C910003E85EFF03FD98327C4FE83C757031397A3
:10C920003700B7F7001C938707EABA973E85EFF008
:10C93000BFDBAA8799CF8327C4FE9C5F13C7F7FF8D
:10C94000B7F7001C83A747EE7D8FB7F7001C23A223
:10C95000E7EE2685EFB03FDE0100F2406244D244AC
:10C9600005618280411106C622C40008EFB05FDC79
:10C97000AA8083970145C207C1838507C207C18387
:10C980001397070141872398E1440685EFB0BFDA8A
:10C990000100B240224441018280411106C622C4F6
:10C9A0000008EFB0FFD8AA8083970145C207C18372
:10C9B000FD17C207C1831397070141872398E144FC
:10C9C00083970145634DF000239801440685EFB03D
:10C9D0009FD683A7414599C7EFF0BFDD21A006850B
:10C9E000EFB07FD50100B2402244410182800111A5
:10C9F00022CE00102326A4FE8327C4FE0327C4FEF4
:10CA0000D8C38327C4FED8438327C4FE98C301003C
:10CA1000724405618280011122CE00102326A4FEFB
:10CA20002324B4FE8327C4FE9C43032784FED8C37B
:10CA30008327C4FE9843832784FE98C38327C4FEBC
:10CA4000032784FE98C3832784FE0327C4FED8C32C
:10CA50000100724405618280011122CE001023265C
:10CA6000A4FE2324B4FE8327C4FEDC43032784FEF4
:10CA700098C38327C4FED843832784FED8C3832763
:10CA8000C4FE032784FED8C3832784FE0327C4FE85
:10CA900098C30100724405618280011122CE00100A
:10CAA0002326A4FE8327C4FE9C430327C4FE5843C9
:10CAB000D8C38327C4FEDC430327C4FE184398C3AE
:10CAC0008327C4FE0327C4FED8C38327C4FED843EC
:10CAD0008327C4FE98C3010072440561828001115E
:10CAE00006CE22CC26CA00102326A4FEEFB05FC4D7
:10CAF000AA848327C4FEBC5B99C78327C4FEBC5BA2
:10CB00000325C4FE82972685EFB0FFC20100F240E4
:10CB10006244D24405618280011106CE22CC26CA2D
:10CB2000001083A741452326F4FEEFB07FC0AA84FE
:10CB30000325C4FE6D370325C4FEEFF0DFDB83273A
:10CB4000C4FE1147238AE7028327C4FE9387470464
:10CB50003E85B52D0325C4FEEFF0BFAB2A87854780
:10CB60006317F7000325C4FEEFF01FA719A883275A
:10CB7000C4FED107BE85B7F7001C138587EEEFF022
:10CB80009FE9EFF01FC32685EFB0FFBA0100F24026
:10CB90006244D24405618280797106D622D400189D
:10CBA0002326A4FE2324B4FE2322C4FE2320D4FE85
:10CBB000232EE4FC232CF4FCC287232814FDA30BB2
:10CBC000F4FC8327C4FED1073E85EFF05FE28327A4
:10CBD000C4FE032744FE98D38327C4FE032704FE24
:10CBE000D8D38327C4FE0327C4FD98D78327C4FE68
:10CBF000032784FDD8D78327C4FE98578327C4FE14
:10CC0000DC573E86930530023A85EFE09FBB8327D1
:10CC1000C4FE88538327C4FECC538327C4FE985791
:10CC20008327C4FEDC57F1173E97B7D7001C9386C5
:10CC300087B13A86EF00B0492A878327C4FED8CF50
:10CC40008327C4FE034774FD238BE7028327C4FEBA
:10CC5000034774FDA38AE7028327C4FE23AC0702BF
:10CC60008327C4FE032704FDD8DF8327C4FE0327E0
:10CC700004FDB8C38327C4FE23A807028327C4FE8C
:10CC8000238A07028327C4FE23A807068327C4FE3E
:10CC900023AA07068327C4FE138547048325C4FE01
:10CCA000814701478326C4FE37D6001C130666F869
:10CCB000F12181473E85B2502254456182807971CD
:10CCC00006D622D400182326A4FE2324B4FE232251
:10CCD000C4FE2320D4FE232EE4FC232CF4FCC287C4
:10CCE000232814FDA30BF4FC032684FE85450325AD
:10CCF000C4FEEFF0BF83834774FD832804FD3E88A4
:10CD0000832784FD0327C4FD832604FE032644FEF7
:10CD1000832584FE0325C4FEEFF01FE8AA873E8525
:10CD2000B250225445618280411122C6000883A777
:10CD300041453E85324441018280011106CE22CC1C
:10CD400000102326A4FE8327C4FE03C7670383279E
:10CD5000C4FEA38AE7028327C4FE83C757033E8726
:10CD60008547B397E7003E878327C4FE98DF832774
:10CD7000C4FE0947238AE7020325C4FE7522EFF0AB
:10CD8000BFFAAA8799C3EFF0DFA281473E85F24040
:10CD9000624405618280011106CE22CC26CA0010B1
:10CDA000EFB01F99AA8483A741452326F4FE832769
:10CDB000C4FE83C7470313F7F70085476319F704D9
:10CDC0008327C4FED84B8327C4FE9C4F6301F7041E
:10CDD0008327C4FED1073E85EFF03FCC8327C4FEF6
:10CDE00083C7570313973700B7F7001C938707EAE9
:10CDF0003E978327C4FED107BE853A85EFF0DFC595
:10CE00002685EFB05F93EFF0DF9A814729A0268552
:10CE1000EFB07F9281473E85F2406244D244056183
:10CE20008280797106D622D426D20018232EA4FC43
:10CE3000EFB01F90AA8483A741452326F4FE032563
:10CE4000C4FEBD208327C4FE938747041307C4FD97
:10CE50003A8681453E8531258327C4FE9387470462
:10CE60003E856D2E2685EFB01F8DEFF09F948327B2
:10CE7000C4FE985BF9576316F7008327C4FE23A806
:10CE8000070281473E85B250225492544561828008
:10CE9000011106CE22CC00102326A4FE0325C4FED9
:10CEA000EFF03FF8AA873E85F24062440561828038
:10CEB000011106CE22CC26CA00102326A4FE832709
:10CEC000C4FE83C7470313F7F70085476304F700E1
:10CED000FD57A9A0EFB0DF85AA840325C4FEEFF0BB
:10CEE0009FA18327C4FE83C74703E207E187C19B55
:10CEF000E207E18793E72700E207E18713F7F70FDF
:10CF00008327C4FE238AE7028327C4FE938747044E
:10CF10003E85ED292685EFB01F8281473E85F24090
:10CF20006244D24405618280011106CE22CC26CA19
:10CF300000102326A4FE8327C4FE83C7470313F7EC
:10CF4000F70089476304F700FD5705A8EFB04FFECF
:10CF5000AA848327C4FED1073E85EFF01FB4832740
:10CF6000C4FE938747043E8555212685EFB0AFFC6C
:10CF70000325C4FEEFF0BF8F81473E85F240624437
:10CF8000D24405618280797106D622D40018232EFE
:10CF9000A4FC8327C4FD2326F4FE8327C4FE79570F
:10CFA00098DB8327C4FED1073E85EFF01FAF032532
:10CFB000C4FEEFF0DF8BEFF0CFFF0100B250225440
:10CFC00045618280011122CE00102326A4FE832712
:10CFD000C4FE0327C4FED8C38327C4FED8438327D7
:10CFE000C4FE98C30100724405618280011122CE03
:10CFF00000102326A4FE2324B4FE8327C4FE9C43F2
:10D00000032784FED8C38327C4FE9843832784FE66
:10D0100098C38327C4FE032784FE98C3832784FE16
:10D020000327C4FED8C30100724405618280011148
:10D0300022CE00102326A4FE8327C4FE9C43032790
:10D04000C4FE5843D8C38327C4FEDC430327C4FE71
:10D05000184398C38327C4FE0327C4FED8C383277D
:10D06000C4FED8438327C4FE98C3010072440561FF
:10D070008280011122CE00102326A4FE8327C4FE45
:10D080009C430327C4FEB307F74093B7170093F7F9
:10D09000F70F3E85724405618280397106DE22DC1D
:10D0A0008000232EA4FC232CB4FC232AC4FC2328B8
:10D0B000D4FCBA87A307F4FC8327C4FD0347F4FC20
:10D0C000A384E7008327C4FD83C79700F99B13F768
:10D0D000F70F8327C4FDA384E7008327C4FD03273C
:10D0E00084FDD8CF8327C4FD032744FD98D383272D
:10D0F000C4FD23A407028327C4FD032704FDD8D35E
:10D10000232604FE0DA08327C4FE89078E0703276C
:10D11000C4FDBA9791073E85EFF0DFEA8327C4FE8E
:10D1200085072326F4FE8327C4FEE35EF0FC01009E
:10D13000F250625421618280797106D622D400189F
:10D14000232EA4FC232604FE0DA08327C4FE8907FA
:10D150008E070327C4FDBA9791073E85EFF03FED98
:10D160008327C4FE85072326F4FE8327C4FEE35EDF
:10D17000F0FC0100B250225445618280797106D6DC
:10D1800022D400182326A4FE2324B4FE2322C4FEA6
:10D190002320D4FE232EE4FCA30DF4FC032684FEFE
:10D1A000A9450325C4FEEFF06FB88347B4FD3E8761
:10D1B0008326C4FD032604FE832544FE0325C4FE06
:10D1C000EFF0BFED0100B2502254456182800111A1
:10D1D00006CE22CC26CA00102326A4FEEFB04FD5DF
:10D1E000AA840325C4FEEFF03FF58327C4FE83C75E
:10D1F0009700F99B13F7F70F8327C4FEA384E7007A
:10D200002685EFB04FD30325C4FEEFF0EFBC814776
:10D210003E85F2406244D24405618280397106DE67
:10D2200022DC26DA80002326A4FCEFB06FD0AA848B
:10D230000325C4FCEFF05FF08327C4FC83C797008D
:10D24000F99B13F7F70F8327C4FCA384E700EFE0F3
:10D250008FC32A878327C4FCDC533E978327C4FCF3
:10D2600098D7938781452322F4FE832744FE232CFD
:10D27000F4FC232604FEE1A88327C4FE8A071307D3
:10D2800004FFBA9783A787FE9C432320F4FE8327DD
:10D29000C4FE8E07D107B307F040032704FEBA97F8
:10D2A000232EF4FC8327C4FD98578327C4FC9C5786
:10D2B0006300F7028327C4FD98578327C4FC9C575B
:10D2C0001D8FB707008093C7E7FF63F7E70411A03E
:10D2D00001008327C4FE8A07130704FFBA9783A7B8
:10D2E00087FE98438327C4FE8A07930604FFB697F8
:10D2F00023A4E7FE8327C4FE8A07130704FFBA9717
:10D3000003A787FE8327C4FE8E07832644FEB697B5
:10D31000DC43E313F7F611A001008327C4FE9DC38D
:10D320008327C4FE8A07130704FFBA9703A787FE63
:10D330008327C4FE850721078A07930604FFB69753
:10D3400023A4E7FE8327C4FE85072326F4FE832754
:10D35000C4FECDD383A701461387170023A0E1465F
:10D3600083A701462324F4FE032784FD8327C4FCFE
:10D37000D107BE853A85EFF07FC789472326F4FEA3
:10D3800089A8832784FE8D8BB9EB05478327C4FECC
:10D39000B307F7408A07130704FFBA9783A687FEEF
:10D3A00005478327C4FEB307F74089078E07032785
:10D3B000C4FCBA979107BE853685EFF03FC383273B
:10D3C00084FE89832324F4FE8327C4FE8507232655
:10D3D000F4FE0327C4FE8547E3F5E7FA11A0010038
:10D3E0008327C4FC83C7970093E7170013F7F70F51
:10D3F0008327C4FCA384E7002685EFB0CFB3814721
:10D400003E85F2506254D25421618280011106CED1
:10D4100022CC26CA00102326A4FE8327C4FE83C77D
:10D420009700858B99E3FD573DA0EFB06FB0AA84BC
:10D430000325C4FEEFF05FD08327C4FE83C79700A7
:10D44000F99B13F7F70F8327C4FEA384E700268513
:10D45000EFB06FAE81473E85F2406244D244056131
:10D460008280011106CE22CC00102326A4FE2324A4
:10D47000B4FE2322C4FEEFB0AFABAA80032784FE24
:10D48000914763E4E708832784FE13972700B7E7F3
:10D49000001C938707CFBA979C4382878327C4FEDB
:10D4A000D853832744FE98C395A0832744FE98430E
:10D4B0008327C4FED8D399A88327C4FE83C79700C7
:10D4C000F59B13F7F70F8327C4FEA384E7003DA85D
:10D4D0008327C4FE83C7970093E7270013F7F70F4E
:10D4E0008327C4FEA384E70015A08327C4FE83C757
:10D4F0009700858B91C7832744FE054798C339A0C1
:10D50000832744FE23A0070011A001000685EFB089
:10D510008FA281473E85F2406244056182800111FD
:10D5200006CE22CC26CA0010930704FE3E85EFF0FB
:10D530007FA9EFE04F952326A4FEEFB06F9FAA844A
:10D54000F9A0938781459C43B1172324F4FE8327D8
:10D5500084FE9C570327C4FE1D8FB707008093C726
:10D56000E7FF63EDE70A032584FEEFF0FFBC8327A6
:10D5700084FE83C79700898B81EF832784FE83C74E
:10D580009700F99B13F7F70F832784FEA384E70026
:10D59000832784FE13874701930704FEBA853E85DF
:10D5A000EFF0DFA4832784FED84F832784FE9C53AB
:10D5B0003E850297EFE02F8D2326A4FE930704FEFD
:10D5C0003E85EFF01FABAA8791C391A0832784FE0D
:10D5D000D1073E85EFF0BFA5832784FE83C7970060
:10D5E000898B95C7832784FE83C79700858B85C366
:10D5F000832784FE83C79700F99B13F7F70F8327D0
:10D6000084FEA384E700032584FEEFF03FC1138569
:10D610008145EFF01FA6AA878DD711A001002685AE
:10D62000EFB06F910100F2406244D2440561828004
:10D63000011106CE22CC0010232604FE05A083276C
:10D64000C4FE1397370093878145BA973E85EFF064
:10D650007F978327C4FE85072326F4FE8327C4FE15
:10D66000F9DF0100F240624405618280411122C667
:10D6700000080100324441018280411122C60008A5
:10D6800081473E85324441018280411122C6000813
:10D6900081473E85324441018280411122C6000803
:10D6A00081473E85324441018280011106CE22CC61
:10D6B0000010B7E7001C9387C7D02326F4FE11A8FB
:10D6C0008327C4FE9C4382978327C4FE91072326A9
:10D6D000F4FE0327C4FEB7E7001C938707D1E3617C
:10D6E000F7FE0100F240624405618280011106CE1E
:10D6F00022CC0010B7E7001C938707D12326F4FE45
:10D7000011A88327C4FE9C4382978327C4FE9107F8
:10D710002326F4FE0327C4FEB7E7001C938747D1F6
:10D72000E361F7FE0100F24062440561828041112D
:10D7300006C622C40008B52881473E85B24022446F
:10D7400041018280011106CE22CC00102326A4FEC6
:10D75000EFF0DFF9EFD0BFEA0100F240624405616B
:10D760008280011106CE22CC0010B7F7001C9387EF
:10D7700007EF2326F4FED1480948930700101387CA
:10D78000812D814637D6001C13064674B7E5001C70
:10D79000938545D00325C4FEEFF06FD22324A4FE69
:10D7A0000325C4FEEFF06FD90100F2406244056129
:10D7B0008280411106C622C40008EFA07FF7EFD097
:10D7C000DFE7EFE00F9BEFF0BFE6EFE07FF4EFF075
:10D7D0005FF9EFF0BFE9EFD03FF3EFE01FF98147CA
:10D7E0003E85B2402244410182800000197106C288
:10D7F0009302000816C412C816CA1ACC1ECE22D034
:10D8000026D22AD42ED632D836DA3ADC3EDEC2C050
:10D81000C6C2CAC4CEC6D2C8D6CADACCDECEE2D020
:10D82000E6D2EAD4EED6F2D8F6DAFADCFEDE0A84E4
:10D83000138181A2EFD07FF173252034F3251034BA
:10D840000A86EFD03F9AEFD01FF422811384C1469D
:10D850000329040063040902232004007325103403
:10D860002AC013844146044023A024001384814627
:10D87000044003A104000245731015349240B722FE
:10D8800000009382028073A00230A24273A0023093
:10D890004242D2426243F243025492542255B2555C
:10D8A0004256D2566257F257064896482649B6491C
:10D8B000464AD64A664BF64B065C965C265DB65DDC
:10D8C000465ED65E665FF65F09617300203079714F
:10D8D00022D60018232EA4FC232CB4FC232AC4FC3B
:10D8E0002328D4FC832744FD91072324F4FE8327B7
:10D8F00084FEF19B2324F4FE832784FE938707F89C
:10D900002324F4FE832784FE2322F4FE232604FE30
:10D910000DA08327C4FE8A07032744FEBA9737C7A2
:10D92000ADDE1307F7EE98C38327C4FE85072326D1
:10D93000F4FE0327C4FEFD47E3FDE7FC032704FDD7
:10D94000832744FED8C3032784FD832744FE98D74A
:10D950000327C4FD832744FE98C3832744FE216721
:10D960001307078898C7832784FE3E853254456194
:10D970008280011122CE00102326A4FE2324B4FEAF
:10D9800083A7C14689E70327C4FE23A2E1460327F4
:10D9900084FE23A4E146054723A6E1460100724424
:10D9A0000561828003A7813D09E737070AFF23ACA1
:04D9B000E13C828054
:10D9B400636C695F746573742076302E32202D2079
:10D9C4004E6F496E74200A0048656C6C6F20525487
:10D9D4002D5468726561640D0A0000007469646CFA
:10D9E400650000000A205C207C202F0A0000000053
:10D9F4002D205254202D202020202054687265614F
:10DA040064204F7065726174696E67205379737412
:10DA1400656D0A004E6F7620323220323032320089
:10DA2400202F207C205C202020202025642E2564AB
:10DA34002E2564206275696C642025730A00000039
:10DA44002032303036202D203230323020436F7077
:10DA54007972696768742062792072742D746872AF
:10DA6400656164207465616D0A000000284E554CA0
:10DA74004C290000AEC1001CFCC1001CFCC1001CF0
:10DA8400FCC1001CFCC1001CFCC1001CFCC1001C2E
:10DA9400FCC1001CFCC1001CFCC1001CFCC1001C1E
:10DAA400FCC1001CFCC1001CFCC1001CFCC1001C0E
:10DAB400FCC1001CFCC1001CFCC1001CFCC1001CFE
:10DAC400FCC1001CFCC1001CFCC1001CFCC1001CEE
