:020000041C00DE
:100800006FF050066FF010066FF0D0056FF0900596
:100810006FF050056FF010056FF0D0046FF090048A
:100820006FF050046FF010046FF0D0036FF090037E
:100830006FF050036FF010036FF0D0026FF0900272
:100840006FF050026FF010026FF0D0016FF0900166
:100850006FF050016FF010016FF0D0006FF090005A
:100860006FF050006FF010006FF0C07F6FF0807F6E
:100870006FF0407F6FF0007F6FF0C07E6FF0807E82
:1080800097A100009381819717F101001301817A74
:10809000018973104530732540301785FFFF1305A4
:1080A000657613651500731055309382818117F33F
:1080B0000000130323F823A002009102E3ED62FE07
:1080C00002454C000146EF507034E9A08280737580
:1080D0000430828073100530828003210500224520
:1080E00073100530A1A819712320250006C006C20F
:1080F00073250030218919C1130500082AC412C84C
:1081000016CA1ACC1ECE22D026D22AD42ED632D8C7
:1081100036DA3ADC3EDEC2C0C6C2CAC4CEC6D2C857
:10812000D6CADACCDECEE2D0E6D2EAD4EED6F2D8A7
:10813000F6DAFADCFEDE03A1050009A002457310A1
:1081400015349240B72200009382028073A002305F
:108150002245732005304242D2426243F243025428
:1081600092542255B2554256D2566257F25706489B
:1081700096482649B649464AD64A664BF64B065CAF
:10818000965C265DB65D465ED65E665FF65F09610B
:10819000730020304111814522C406C62A84DD22A5
:1081A000B717011C03A5871F5C5D91C382972285C9
:1081B0004924B3C7A5008D8B3307C50081E78D47E0
:1081C00063EFC700AA876369E500828083C6050064
:1081D00085078505A38FD7FEE3EAE7FE82809377C4
:1081E0003500BDEBAA879376C7FF138606FE63FCB6
:1081F000C70683A3050083A2450083AF850003AFB4
:10820000C50083AE050103AE450103A3850183A824
:10821000C5019385450223A0770003A8C5FF23A2CB
:10822000570023A4F70123A6E70123A8D70123AA17
:10823000C70123AC670023AE17019387470223AE23
:1082400007FF75B783C6050085078505A38FD7FE91
:1082500093F63700E5FA41BFAA87DDBF9041910749
:10826000910523AEC7FEE3EBD7FEE3E7E7F6828096
:108270003D432A876373C3029377F700BDEFADE5F3
:10828000937606FF3D8ABA960CC34CC30CC74CC705
:108290004107E36BD7FE11E28280B306C3408A0632
:1082A0009702000096966780A6002307B700A306F2
:1082B000B7002306B700A305B7002305B700A30442
:1082C000B7002304B700A303B7002303B700A3023A
:1082D000B7002302B700A301B7002301B700A30032
:1082E000B7002300B700828093F5F50F93968500C1
:1082F000D58D93960501D58D61B79396270097028A
:10830000000096968682E78086FA9680C1171D8FB8
:108310003E96E374C3F8A5B7AA87850703C7F7FF9E
:108320006DFF3385A7407D1582801DC213071500A0
:1083300032958347F7FF83C605006385D7003385F1
:10834000D7408280E30DA7FE0507F5DB8505D5B78D
:10835000014582802A8711E28280850583C6F5FF68
:10836000930717001308F6FFA38FD7FE89E632970D
:108370006396E70082803E874286F1BF8507A38F20
:1083800007FEFDB77971B717011C4ECE83A9871F71
:1083900052CC56CA5AC806D622D426D24AD05EC675
:1083A000AA8A2E8A054B83A4891481C8C040130968
:1083B000F4FF0A042694635D0900B25022549254DB
:1083C0000259F249624AD24A424BB24B456182801D
:1083D00063090A0083274410638547017D197114DE
:1083E000D9BFD8405C407D176316270323A2240120
:1083F000F5D783A6841833172B0183AB4400F98E7D
:1084000089EE8297D84083A78914E31E77F9E38722
:10841000F4FC51BF23220400E1BF83A6C4188325C6
:108420004408758F01E756858297E9BF2E858297AC
:10843000D1BF814501468146014781479308D00558
:1084400073000000635B0500411122C42A8406C644
:1084500033048040212000C101A001A0B717011CF6
:1084600003A5C71F8280011122CE00102326A4FE7F
:108470008327C4FE138787008327C4FED8C38327BE
:10848000C4FE7D5798C78327C4FE138787008327C0
:10849000C4FED8C78327C4FE138787008327C4FE82
:1084A00098CB8327C4FE23A0070001007244056116
:1084B0008280797122D60018232EA4FC232CB4FCD0
:1084C0008327C4FDDC432326F4FE832784FD032792
:1084D000C4FED8C38327C4FE9847832784FD98C76A
:1084E0008327C4FE9C47032784FDD8C38327C4FE8B
:1084F000032784FD98C7832784FD0327C4FD98CBF9
:108500008327C4FD9C43138717008327C4FD98C3AA
:108510000100325445618280797122D60018232EE1
:10852000A4FC232CB4FC832784FD9C432324F4FE69
:10853000032784FEFD576318F7008327C4FD9C4B77
:108540002326F4FE25A08327C4FDA1072326F4FEDD
:1085500031A08327C4FEDC432326F4FE8327C4FE18
:10856000DC439C43032784FEE375F7FE8327C4FEA8
:10857000D843832784FDD8C3832784FDDC430327A6
:1085800084FD98C7832784FD0327C4FE98C78327EB
:10859000C4FE032784FDD8C3832784FD0327C4FDBD
:1085A00098CB8327C4FD9C43138717008327C4FD02
:1085B00098C30100325445618280797122D6001837
:1085C000232EA4FC8327C4FD9C4B2326F4FE832783
:1085D000C4FDDC430327C4FD184798C78327C4FDA7
:1085E0009C470327C4FD5843D8C38327C4FEDC43FC
:1085F0000327C4FD6318F7008327C4FD984783272A
:10860000C4FED8C38327C4FD23A807008327C4FE64
:108610009C431387F7FF8327C4FE98C38327C4FEB8
:108620009C433E85325445618280797106D622D4BE
:108630000018232EA4FC232CB4FC8327C4FD23267E
:10864000F4FE8327C4FE81E77370043001A0EF00BD
:10865000F06B8327C4FE98438327C4FED45F83272F
:10866000C4FEBC43B387F6023E978327C4FE98C777
:108670008327C4FE23AC07028327C4FE98438327C5
:10868000C4FED8C38327C4FE98438327C4FEDC5F9F
:108690009386F7FF8327C4FEBC43B387F6023E9759
:1086A0008327C4FED8C78327C4FE7D572382E704EF
:1086B0008327C4FE7D57A382E704832784FD85E3D7
:1086C0008327C4FE9C4B9DC78327C4FEC1073E85FC
:1086D000EF00902CAA8799CF7300000021A8832770
:1086E000C4FEC1073E8541338327C4FE93874702FA
:1086F0003E85953BEF00B06485473E85B2502254DD
:1087000045618280797106D622D40018232EA4FCFC
:10871000232CB4FCB287A30BF4FC8327C4FD81E7B0
:108720007370043001A00327C4FD832784FDB307C1
:10873000F7022326F4FE8327C4FE938707053E85B0
:10874000EF0030722324A4FE832784FE9DC7832775
:1087500084FE2322F4FE832744FE93870705232209
:10876000F4FE834774FD032784FEBE86032644FE81
:10877000832584FD0325C4FD0128832784FE3E85CF
:10878000B250225445618280797106D622D40018F5
:108790002326A4FE2324B4FE2322C4FEB687232E60
:1087A000E4FCA301F4FE832784FE99E78327C4FD3C
:1087B0000327C4FD98C331A08327C4FD032744FECB
:1087C00098C38327C4FD0327C4FED8DF8327C4FDD5
:1087D000032784FEB8C385450325C4FDB935832727
:1087E000C4FD034734FE2386E7040100B25022543F
:1087F00045618280397106DE22DC80002326A4FCDC
:108800002324B4FC2322C4FC2320D4FC232604FE0E
:108810008327C4FC2324F4FE832784FE81E773703E
:10882000043001A0832784FC89E7832784FEBC43AE
:1088300099E3854711A0814781E77370043001A057
:10884000032704FC89476318F700832784FED85F59
:1088500085476314F700854711A0814781E773704E
:10886000043001A0EF003038AA8781E7832744FC59
:1088700099E3854711A0814781E77370043001A017
:10888000EF00D048832784FE985F832784FEDC5F57
:108890006367F700032704FC89476314F704032682
:1088A00004FC832584FC032584FEFD222322A4FEF0
:1088B000832784FEDC5389CF832784FE9387470276
:1088C0003E85EF00700DAA8789CB7300000031A0B0
:1088D000832744FE99C373000000EF00504685478C
:1088E000D1A0832744FC89E7EF00704581475DA84C
:1088F0008327C4FE89EB9307C4FD3E85EF00301744
:1089000085472326F4FEEF009043552EEF001040DC
:10891000832784FE83C74704139787016187FD5728
:108920006316F700832784FE23820704832784FECF
:1089300083C75704139787016187FD576316F700B4
:10894000832784FEA3820704EF00703F130744FCD3
:108950009307C4FDBA853E85EF005014AA8795EFB2
:10896000032584FE312EAA8785C7832784FEC1078D
:10897000032744FCBA853E85EF00E07D032584FE95
:108980008924B92EAA87E39D07EE73000000CDBDB0
:10899000032584FE3D24A926E5B5032584FE152480
:1089A000812681473E85F25062542161828039716F
:1089B00006DE22DC80002326A4FC2324B4FC8327CB
:1089C000C4FC2324F4FE832784FE81E77370043003
:1089D00001A0832784FEBC4381C77370043001A0CB
:1089E000832784FE9C4389E7832784FE9C4799E381
:1089F000854711A0814781E77370043001A02322CD
:108A000004FE832784FE9C5F2320F4FE832784FEDC
:108A1000DC5F032704FE6378F706832784FE83C7A1
:108A20005704A30FF4FC832704FE13871700832742
:108A300084FE98DF0307F4FDFD576316F7028327D2
:108A400084FEDC538DCF832784FE938747023E85C7
:108A5000A127AA878DC7832784FC95C3832784FC1D
:108A6000054798C329A88347F4FD850793F7F70FB7
:108A7000139787016187832784FEA382E7048547D4
:108A80002326F4FE19A0232604FE8327C4FE3E8578
:108A9000F250625421618280797106D622D4001886
:108AA000232EA4FC232CB4FC232AC4FC232604FE7E
:108AB0008327C4FD9C5F2324F4FE8327C4FDBC43AD
:108AC00095E38327C4FD9C43F9EF8327C4FD9C47AE
:108AD0003E85EF00F0142326A4FE8327C4FD23A4C3
:108AE0000700D1A0832744FDB1E78327C4FDD84305
:108AF0008327C4FDBC433E86832584FD3A85EFF081
:108B00004FEB8327C4FDD8438327C4FDBC433E9766
:108B10008327C4FDD8C38327C4FDD8438327C4FD5E
:108B20009C476362F7088327C4FD98438327C4FDED
:108B3000D8C395A88327C4FDD8478327C4FDBC4369
:108B40003E86832584FD3A85EFF0AFE68327C4FD9A
:108B5000D8478327C4FDBC43B307F0403E97832723
:108B6000C4FDD8C78327C4FDD8478327C4FD9C43D1
:108B7000637EF7008327C4FD98478327C4FDBC4369
:108B8000B307F0403E978327C4FDD8C7032744FDB1
:108B90008947631AF700832784FE91C7832784FEE1
:108BA000FD172324F4FE832784FE138717008327F1
:108BB000C4FD98DF8327C4FE3E85B2502254456130
:108BC0008280797106D622D40018232EA4FCEF00EF
:108BD000F0138327C4FD83C75704A307F4FE35A011
:108BE0008327C4FDDC539DC78327C4FD93874702B9
:108BF0003E855D23AA8799C3EF0020798347F4FE61
:108C0000FD1793F7F70FA307F4FE8307F4FEE3497C
:108C1000F0FC11A001008327C4FD7D57A382E70467
:108C2000EF00F011EF00900E8327C4FD83C74704C7
:108C30002307F4FE25A08327C4FD9C4B8DC7832703
:108C4000C4FDC1073E85892BAA8791C33D2F834769
:108C5000E4FEFD1793F7F70F2307F4FE8307E4FE06
:108C6000E34BF0FC11A001008327C4FD7D57238254
:108C7000E704EF00D00C0100B2502254456182801D
:108C8000797106D622D40018232EA4FCEF00100818
:108C90008327C4FD985F8327C4FDDC5F6316F7005C
:108CA00085472326F4FE19A0232604FEEF00300991
:108CB0008327C4FE3E85B250225445618280411113
:108CC00022C60008B777011C83A747B9138717008E
:108CD000B777011C23AAE7B8010032444101828022
:108CE000011106CE22CC0010232604FE232404FE0C
:108CF000B777011C83A747B981E77370043001A0DF
:108D0000EF00D000B777011C83A747B91387F7FF9F
:108D1000B777011C23AAE7B8B777011C83A747B927
:108D2000639C070EB777011C83A747B76386070EBE
:108D300069A09387C187DC47DC472326F4FE83279D
:108D4000C4FEE1073E85EFF05F878327C4FE9107ED
:108D50003E85EFF09F868327C4FED857B777011C66
:108D600083A7C7B763F9E7008327C4FED857B7774F
:108D7000011C23AEE7B68327C4FED857BA878A07FB
:108D8000BA978A073717011C130707213E978327D5
:108D9000C4FE9107BE853A85EFF0AFF18327C4FE8C
:108DA000D857B777011C83A787B6DC576367F700EE
:108DB000B777011C054723A4E7B89387C1879C4375
:108DC000ADFB8327C4FE91C3E92BB777011C83A7B2
:108DD00047B82322F4FE832744FE8DC7B120AA871B
:108DE00091C7B777011C054723A4E7B8832744FE42
:108DF000FD172322F4FE832744FEEDF3B777011C11
:108E000023A207B8B777011C83A787B891C7854706
:108E10002324F4FE730000001D27832784FE3E8573
:108E2000F240624405618280797106D622D400182E
:108E3000232604FEB777011C83A747B9639E071852
:108E4000B777011C83A787B785072324F4FEB7777C
:108E5000011C032784FE23ACE7B6832784FEA9EB1D
:108E6000B777011C83A7C7B69C4381C773700430D2
:108E700001A0B777011C83A7C7B62322F4FEB777FA
:108E8000011C03A707B7B777011C23A6E7B6B7777E
:108E9000011C032744FE23A8E7B6B777011C83A76C
:108EA000C7B813871700B777011C23A6E7B8D529E1
:108EB000B777011C83A707B9032784FE6369F70C02
:108EC000B777011C83A7C7B69C4399E7B777011C06
:108ED0007D5723A8E7B865A8B777011C83A7C7B655
:108EE000DC47DC472320F4FE832704FEDC43232EEB
:108EF000F4FC032784FE8327C4FD6379F700B7776A
:108F0000011C0327C4FD23A8E7B851A0832704FE52
:108F100091073E85EFF06FEA832704FE9C5799C7BF
:108F2000832704FEE1073E85EFF02FE9832704FE47
:108F3000D857B777011C83A7C7B763F9E700832722
:108F400004FED857B777011C23AEE7B6832704FE8B
:108F5000D857BA878A07BA978A073717011C1307A9
:108F600007213E97832704FE9107BE853A85EFF0DF
:108F70004FD4832704FED857B777011C83A787B641
:108F8000DC57E36FF7F285472326F4FE15BFB7776A
:108F9000011C83A787B6D857B717011C93860721F2
:108FA000BA878A07BA978A07B6979843854763F5C1
:108FB000E70085472326F4FEB777011C83A747B84F
:108FC00099E3EF20C04CB777011C83A787B88DC306
:108FD00085472326F4FE29A8B777011C83A747B845
:108FE00013871700B777011C23A2E7B8EF20204AA8
:108FF0008327C4FE3E85B250225445618280011110
:1090000006CE22CC0010B777011C83A747B999C7B9
:10901000B777011C054723A4E7B80DAAB777011C51
:1090200023A407B8B777011C83A787B69C5B2324CA
:10903000F4FEB7A7A5A59387575A2322F4FE8327EA
:1090400084FE9C43032744FE631AF702832784FEB1
:1090500091079C43032744FE6312F702832784FE93
:10906000A1079C43032744FE631AF700832784FE6D
:10907000B1079C43032744FE6300F702B777011C46
:1090800003A787B6B777011C83A787B693874703E3
:10909000BE853A85EF20403EB777011C83A7C7B74E
:1090A0002326F4FE21A88327C4FE81E773700430D1
:1090B00001A08327C4FEFD172326F4FEB717011C69
:1090C000938607210327C4FEBA878A07BA978A07BF
:1090D000B6979C43E9DB0327C4FEBA878A07BA9791
:1090E0008A073717011C13070721BA972320F4FEBC
:1090F000832704FEDC43D843832704FED8C3832799
:1091000004FED843832704FEA1076319F7008327D1
:1091100004FEDC43D843832704FED8C3832704FE20
:10912000DC43D847B777011C23A4E7B6B777011C07
:109130000327C4FE23AEE7B6B777011C83A787B623
:1091400013878705B717011C23AEE71E0100F24005
:10915000624405618280011106CE22CC00102326D4
:10916000A4FE2324B4FE8327C4FE81E77370043079
:1091700001A0B777011C83A787B6E107BE85032549
:10918000C4FEEFF06FB98545032584FED52E01009E
:10919000F240624405618280797106D622D40018BB
:1091A000232EA4FC8327C4FDDC47DC472324F4FEE4
:1091B000832784FE81E77370043001A0832784FE37
:1091C000E1073E85EFF06FBFB777011C83A747B972
:1091D000B9EB832784FE91073E85EFF00FBE83270E
:1091E00084FED857B777011C83A7C7B763F9E70098
:1091F000832784FED857B777011C23AEE7B68327B1
:1092000084FED857BA878A07BA978A073717011C8E
:10921000130707213E97832784FE9107BE853A8571
:10922000EFF02FA909A8832784FEE107BE851385E7
:10923000C187EFF00FA8832784FED857B777011CAA
:1092400083A787B6DC5763FBE70085472326F4FE38
:10925000B777011C054723A4E7B819A0232604FE0D
:109260008327C4FE3E85B25022544561828001119D
:1092700022CE00102326A4FEB777011C03A7C7B88F
:109280008327C4FE98C3B777011C03A787B783273A
:10929000C4FED8C30100724405618280797106D68C
:1092A00022D40018232EA4FC232CB4FC8327C4FD55
:1092B00081E77370043001A0832784FD81E7737018
:1092C000043001A0A124B777011C83A787B723240A
:1092D000F4FE8327C4FDDC43032784FEB307F74075
:1092E0002322F4FEB777011C83A787B683C75748AC
:1092F00099CBB777011C83A787B6A3820748854718
:109300002326F4FE9DA8832784FD9843FD5763150B
:10931000F700232604FE95A08327C4FD9843B77762
:10932000011C83A7C7B8630DF7008327C4FDDC4386
:10933000032784FE6366F70085472326F4FE35A8DD
:10934000832784FD9C43032744FE6371F702832730
:1093500084FD9843832744FE1D8F832784FD98C393
:109360000325C4FD2937232604FE01A8832784FD95
:1093700023A0070085472326F4FED1228327C4FEBD
:109380003E85B250225445618280411122C60008B8
:10939000B777011C054723A4E7B801003244410117
:1093A0008280011122CE0010B777011C83A7C7B6B7
:1093B0009C4399E7B777011C7D5723A8E7B805A020
:1093C000B777011C83A7C7B6DC47DC472326F4FE2A
:1093D0008327C4FED843B777011C23A8E7B8010050
:1093E000724405618280011122CE0010B777011C02
:1093F00083A707B889E785472326F4FE21A8B77716
:10940000011C83A747B989E789472326F4FE19A0E1
:10941000232604FE8327C4FE3E85724405618280B4
:10942000797106D622D40018232EA4FC8327C4FD0C
:109430002324F4FE232604FE8327C4FDE9C3B77763
:10944000011C83A787B6032784FE6305F7007370AA
:10945000043001A0832784FEFC4B81E77370043045
:1094600001A0832784FEFC4B1387F7FF832784FE2C
:10947000F8CB832784FED857832784FEBC4B630038
:10948000F708832784FEFC4BBDEB832784FE9107FE
:109490003E85EFF08F92832784FEB84B832784FEAE
:1094A000D8D7832784FEDC5715471D8F832784FE7A
:1094B00098CF832784FED857B777011C83A7C7B7F7
:1094C00063F9E700832784FED857B777011C23AEE2
:1094D000E7B6832784FED857BA878A07BA978A07E0
:1094E0003717011C130707213E97832784FE910736
:1094F000BE853A85EFE0FFFB85472326F4FE8327F0
:10950000C4FE3E85B250225445618280411122C67C
:10951000000873700430B777011C83A707B881CFA8
:10952000B777011C83A787B6F8430507F8C3B77759
:10953000011C83A787B6010032444101828041119A
:1095400022C60008B777011C83A707B895C7B7776D
:10955000011C83A787B6FC4385C3B777011C83A78B
:1095600087B6F8437D17F8C3B777011C83A787B682
:10957000FC4399E37360043001003244410182806E
:10958000797106D622D40018232EA4FC232CB4FC17
:10959000B777011C83A787B72326F4FEB777011C92
:1095A00083A787B6A3820748B777011C83A787B62E
:1095B00091073E85EFF06F800327C4FDFD576310D0
:1095C000F702832784FD81CFB777011C83A787B675
:1095D0009107BE8513850189EFE0BFEDB5A803278C
:1095E000C4FE8327C4FDBA972324F4FEB777011C79
:1095F00083A787B6032784FED8C3032784FE832767
:10960000C4FE6370F702B777011C03A707B7B777EB
:10961000011C83A787B69107BE853A85EFE0DFEF8F
:1096200025A8B777011C03A7C7B6B777011C83A786
:1096300087B69107BE853A85EFE01FEEB777011C2C
:1096400083A707B9032784FE6378F700B777011C67
:10965000032784FE23A8E7B80100B25022544561D5
:109660008280397106DE22DC80002326A4FC2322BE
:1096700004FEEFF0CFE4B777011C83A787BA99E720
:109680008D2AB777011C054723A4E7BA8327C4FCBA
:1096900095C3C1473E878327C4FCBA972326F4FCB1
:1096A0008327C4FCBD8B99C78327C4FCC19BC1071A
:1096B0002326F4FC8327C4FC638F07100327C4FC14
:1096C000C167BD1763E9E710B777011C938787B9B6
:1096D0002324F4FEB777011C938787B99C43232684
:1096E000F4FE11A88327C4FE2324F4FE8327C4FEBE
:1096F0009C432326F4FE8327C4FEDC430327C4FCDB
:1097000063F6E7008327C4FE9C43E9FF0327C4FEFA
:10971000B777011C938707BA630FF70A832784FE84
:109720009C434147BA972322F4FE8327C4FE984303
:10973000832784FE98C38327C4FED8438327C4FCB1
:10974000B307F74041470607637BF7060327C4FECC
:109750008327C4FCBA97232EF4FC8327C4FED84386
:109760008327C4FC1D8F8327C4FDD8C38327C4FE71
:109770000327C4FCD8C38327C4FDDC43232CF4FC9B
:10978000B777011C938787B92320F4FE31A0832784
:1097900004FE9C432320F4FE832704FE9C43DC4309
:1097A000032784FDE3E5E7FE832704FE9843832730
:1097B000C4FD98C3832704FE0327C4FD98C3B717CD
:1097C000011C03A707208327C4FEDC431D8FB717A6
:1097D000011C23A0E720EFF0AFD0832744FE99E3DC
:1097E000EF10B048832744FE3E85F2506254216159
:1097F0008280011122CE0010B777011C93870704E5
:10980000C19B2326F4FEB777011C938787B90327F2
:10981000C4FE98C3B777011C938787B923A20700BA
:10982000B777011C938707BA41674117D8C3B77749
:10983000011C938707BA23A007008327C4FE2324B3
:10984000F4FE832784FE41674117D8C3832784FE33
:109850003777011C130707BA98C3010072440561EA
:109860008280011122CE0010B777101A2326F4FE51
:109870008327C4FE9C4393F7F70793F7F70F3E85C2
:10988000724405618280797122D60018AA87A30FDD
:10989000F4FCB777101A2326F4FE8347F4FD93F700
:1098A000F70713F7F70F8327C4FE1376F70703C7ED
:1098B0000700137707F8BA863287558F2380E700B1
:1098C0000100325445618280797122D60018AA873E
:1098D000A30FF4FCB777101A2326F4FE0347F4FD18
:1098E0008547631BF7008327C4FE03C74700136740
:1098F00017002382E70019A88347F4FD81EB832733
:10990000C4FE03C74700799B2382E7008327C4FE78
:10991000DC43858B93F7F70F3E8532544561828097
:10992000011122CE00102326A4FE0100724405611D
:109930008280797106D622D40018232EA4FC232617
:1099400004FE11A88327C4FE3E8585288327C4FE14
:1099500085072326F4FE0327C4FE9307700AE3D38A
:10996000E7FE0100B250225445618280011122CEEF
:1099700000102326A4FE2324B4FE2322C4FE832742
:1099800084FE81CFB717011C1387C7298327C4FE24
:109990008A07BA97032784FE98C3832744FE91CB96
:1099A000138741B48327C4FE8A07BA97032744FE6E
:1099B00098C30100724405618280011122CE00101B
:1099C0002326A4FEB717011C1387C7298327C4FECB
:1099D0008A07BA9737A7001C1307079298C3138703
:1099E00041B48327C4FE8A07BA9723A00700010069
:1099F000724405618280797106D622D40018232E24
:109A0000A4FC232604FEB767101A938707099C431A
:109A10002324F4FE832784FE93F7F70F2324F4FE18
:109A2000B717011C1387C729832784FE8A07BA97B3
:109A30009C4391CFB717011C1387C729832784FE46
:109A40008A07BA979843832784FE3E850297138737
:109A500041B4832784FE8A07BA979C438DCB138732
:109A600041B4832784FE8A07BA979C432322F4FEDD
:109A7000B777011C9385C7BA032544FEEFE03FF397
:109A8000B777011C83A7C7BA99C3EFF04FD701007E
:109A9000B250225445618280011122CE26CC0010A2
:109AA000232604FEF3270030BE84A6872326F4FE77
:109AB000A1472324F4FE832784FEF3A70730232441
:109AC000F4FE832784FE2326F4FEF3270030BE84B1
:109AD000A6872326F4FE8327C4FE3E857244E24413
:109AE00005618280797122D60018AA872E87A30F7C
:109AF000F4FCBA87230FF4FCB747101A2326F4FEB0
:109B00000347F4FD9307F00263F5E7007370043038
:109B100001A08347F4FD0347E4FD0D8B9376F70F17
:109B20000327C4FE938707108A07BA9736871376F0
:109B3000370003D70700719BBA863287558F239071
:109B4000E7000100325445618280797122D6001805
:109B5000AA87A30FF4FCB747101A2326F4FE034785
:109B6000F4FD9307F00263F5E7007370043001A081
:109B70008347F4FD0327C4FE938707108A07BA972B
:109B80009C438D8B93F7F70F3E853254456182805D
:109B9000011122CE00102326A4FE2324B4FE0327A5
:109BA00084FE8327C4FE1CC30100724405618280C9
:109BB000011106CE22CC00102326A4FE2324B4FEDD
:109BC0000327C4FEB767101ABA97BE85032584FE23
:109BD000C1370100F240624405618280011106CE66
:109BE00022CC0010232604FE29A88327C4FE850763
:109BF0008A07FD553E856D3F8327C4FE85072326D2
:109C0000F4FE0327C4FE9D47E3D1E7FE0100F240C6
:109C1000624405618280011122CE00102326A4FE39
:109C20002324B4FE032784FE8327C4FE1CC3010043
:109C3000724405618280411106C622C40008B7B58E
:109C4000101A0145C93FB7B7101A9385470001455F
:109C5000D93701003E85B240224441018280011182
:109C600006CE22CC00102326A4FE81450325C4FE87
:109C70001928B7B5101A5D45793F81473E85F240F6
:109C8000624405618280011106CE22CC0010232699
:109C9000A4FEAE87A305F4FEB7B7101A938507029A
:109CA0000545953FB7B7101A938507010325C4FEF4
:109CB0009D37B7B7101A938547020545A93F8147DD
:109CC0003E85F240624405618280011122CE00107F
:109CD0002326A4FE2324B4FE032784FE8327C4FE88
:109CE0001CC30100724405618280797122D600187C
:109CF000232EA4FC8327C4FD9C432326F4FE832744
:109D0000C4FE3E85325445618280011106CE22CCCC
:109D100000102326A4FE2324B4FE032784FEB76785
:109D2000101A9107BA97BE850325C4FE793F01003A
:109D3000F240624405618280011106CE22CC0010FF
:109D40002326A4FE0327C4FEB767101A9107BA970B
:109D50003E85613FAA873E85F2406244056182806C
:109D6000797106D622D40018232EA4FC0327C4FD43
:109D70009307F00F63CCE7048327C4FD63C807048F
:109D80000327C4FD9357F741ED833E977D8BB307BF
:109D9000F7402326F4FE8327C4FD13D7F7417D8BBC
:109DA000BA9795878A072324F4FE032584FE693732
:109DB000AA8605478327C4FEB317F70093C7F7FFAA
:109DC000F58F832584FE3E85893711A00100B250AE
:109DD000225445618280797122D60018232EA4FC7A
:109DE000232604FE8327C4FE85072326F4FE0100F4
:109DF000325445618280797122D60018232EA4FC4A
:109E0000232604FE8327C4FE85072326F4FE0100D3
:109E1000325445618280797106D622D40018AA870F
:109E2000232CB4FCA30FF4FCB727101A2326F4FE4E
:109E30000347F4FDB727340093875704BA979E076A
:109E40002324F4FE8347F4FD3777011C130707C36F
:109E50008A07BA979C4399EB8347F4FD3777011C37
:109E6000130787C28A07BA979C4399C38547A5AA57
:109E70008327C4FE9C470347F4FDC1463397E600A1
:109E80005D8F8327C4FE98C78327C4FE9C47034782
:109E9000F4FDC1463397E6001347F7FF7D8F832714
:109EA000C4FE98C78327C4FE9C430347F4FDC14604
:109EB0003397E6005D8F8327C4FE98C30D46814526
:109EC0000545EFE03F842322A4FE832744FE81E77B
:109ED0007370043001A0814601468145032544FE8C
:109EE000EFE05F918347F4FD3777011C130707C349
:109EF0008A07BA97032744FE98C30D468145054556
:109F0000EFE05F802322A4FE832744FE81E7737085
:109F1000043001A0814601468145032544FEEFE05F
:109F20007F8D8347F4FD3777011C130787C28A07AB
:109F3000BA97032744FE98C38347F4FD91078A0725
:109F4000BE868347F4FD3777011C130707C38A07D2
:109F5000BA979C433E86B7A7001C938567DF36857A
:109F600031348347F4FD91078A07938617008347AE
:109F7000F4FD3777011C130787C28A07BA979C4301
:109F80003E86B7A7001C938567DD3685EFF01F9EE0
:109F90008347F4FD91078A073E85D9338347F4FD53
:109FA00091078A0785073E85653BB7574C001387A5
:109FB00007B4832784FDB357F7022320F4FE8327D9
:109FC00004FE13F7F70FB777011C2388E7BA83273E
:109FD00004FEA18313F7F70FB777011C938707BB24
:109FE000A380E70081473E85B250225445618280BC
:109FF000011122CE00102326A4FE2324B4FE032741
:10A0000084FE8327C4FE1CC3010072440561828064
:10A01000797122D60018232EA4FC8327C4FD9C430B
:10A020002326F4FE8327C4FE3E8532544561828098
:10A03000011106CE22CC00102326A4FE2324B4FE58
:10A04000032784FEB767101A9107BA97BE850325C8
:10A05000C4FE793F0100F240624405618280011133
:10A0600006CE22CC00102326A4FE0327C4FEB76729
:10A07000101A9107BA973E85613FAA873E85F24044
:10A08000624405618280797106D622D40018232E9D
:10A09000A4FC0327C4FD9307F00F63CCE7048327D8
:10A0A000C4FD63C807040327C4FD9357F741ED833C
:10A0B0003E977D8BB307F7402326F4FE8327C4FD2C
:10A0C00013D7F7417D8BBA9795878A072324F4FE2F
:10A0D000032584FE6937AA8605478327C4FEB31784
:10A0E000F70093C7F7FFF58F832584FE3E858937F8
:10A0F00011A00100B250225445618280411122C654
:10A100000008B777011C83A747BB13871700B777F1
:10A11000011C23AAE7BA01003244410182804111A7
:10A1200022C60008B777011C83A747BB1387071017
:10A13000B777011C23AAE7BA0100324441018280AB
:10A14000411122C60008B777011C03A747BBC167AE
:10A150003E97B777011C23AAE7BA010032444101B8
:10A160008280411122C60008B777011C03A747BBB4
:10A17000B70700013E97B777011C23AAE7BA010091
:10A18000324441018280797106D622D40018AA8710
:10A19000232CB4FCA30FF4FCB727101A2326F4FEDB
:10A1A0000347F4FDB727340093873704BA979E0717
:10A1B0002324F4FE8347F4FD3777011C1307C7C43B
:10A1C0008A07BA979C4399EB8347F4FD3777011CC4
:10A1D000130747C48A07BA979C4399C38547BDAC08
:10A1E0008347F4FD95EB8327C4FE9C4713E74700A4
:10A1F0008327C4FE98C78327C4FE9C4713F7B7FF85
:10A200008327C4FE98C78327C4FE9C4313E74700F7
:10A210008327C4FE98C335A80347F4FD8547631A16
:10A22000F7028327C4FE9C4713E787008327C4FEF9
:10A2300098C78327C4FE9C4713F777FF8327C4FE84
:10A2400098C78327C4FE9C4313E787008327C4FE77
:10A2500098C30D4681450545EFE0CFCA2322A4FEF1
:10A26000832744FE81E77370043001A081460146D4
:10A270008145032544FEEFE0EFD78347F4FD3777B0
:10A28000011C1307C7C48A07BA97032744FE98C363
:10A290000D4681450545EFE0EFC62322A4FE832746
:10A2A00044FE81E77370043001A081460146814578
:10A2B000032544FEEFE00FD48347F4FD3777011CFC
:10A2C000130747C48A07BA97032744FE98C30D466D
:10A2D00081450545EFE00FC32322A4FE832744FEFA
:10A2E00081E77370043001A0814601468145032552
:10A2F00044FEEFE02FD08347F4FD3777011C1307AE
:10A3000047C58A07BA97032744FE98C30D4681457F
:10A310000545EFE02FBF2322A4FE832744FE81E7FB
:10A320007370043001A0814601468145032544FE37
:10A33000EFE04FCC8347F4FD3777011C130787C349
:10A340008A07BA97032744FE98C3B777011C23AA4C
:10A3500007BA8347F4FD89078A07BE868347F4FD61
:10A360003777011C1307C7C48A07BA979C433E86F8
:10A37000B7A7001C9385E7113685EFF02FDF8347E1
:10A38000F4FD89078A07938617008347F4FD377722
:10A39000011C130747C48A07BA979C433E86B7A798
:10A3A000001C9385C70F3685EFF04FDC8347F4FD23
:10A3B00089078A078907BE868347F4FD3777011C22
:10A3C000130747C58A07BA979C433E86B7A7001C68
:10A3D000938507143685EFF06FD98347F4FD89071D
:10A3E0008A078D07BE868347F4FD3777011C130764
:10A3F00087C38A07BA979C433E86B7A7001C9385FC
:10A4000027163685EFF08FD68347F4FD89078A0734
:10A410003E8595398347F4FD89078A0785073E8580
:10A420009D318347F4FD89078A0789073E85A13955
:10A430008347F4FD89078A078D073E85A931B75701
:10A440004C00138707B4832784FDB357F70213F733
:10A45000F70FB777011C2380E7C481473E85B250D0
:10A46000225445618280797122D60018AA87232C54
:10A47000B4FC232AC4FCA30FF4FCB727101A23262C
:10A48000F4FE0347F4FDB727340093873704BA97E7
:10A490009E072324F4FE832784FDB9EB8347F4FD54
:10A4A00095E38327C4FE9C4713E747008327C4FE38
:10A4B00098C78327C4FE9C4713F7B7FF8327C4FEC2
:10A4C00098C715A80347F4FD85476316F70283274D
:10A4D000C4FE9C4713E787008327C4FE98C78327E1
:10A4E000C4FE9C4713F777FF8327C4FE98C721A0BB
:10A4F0007370043001A0010081473E8532544561EC
:10A500008280797122D60018AA872E87A30FF4FCC7
:10A51000BA87230FF4FC0347F4FDB7273400938771
:10A520003704BA979E072326F4FE938741DE23243F
:10A53000F4FE232204FE8327C4FE03C787003D9B4D
:10A540002384E7008327C4FE03C787013D9B238C38
:10A55000E7008327C4FE03C787023D9B2384E702ED
:10A560008327C4FE03C78700136707042384E7001B
:10A570008327C4FE03C7870113670704238CE70002
:10A580008327C4FE03C78702136707042384E702F7
:10A59000B777011C83C607C4832784FE138747004F
:10A5A0002324E4FE368798C30347E4FDB707001071
:10A5B000B366F700832784FE138747002324E4FE55
:10A5C000368798C3832784FE138747002324E4FE3D
:10A5D000370707201307F70998C3832784FE1387DB
:10A5E00047002324E4FE370747700D0798C38327ED
:10A5F00084FE138747002324E4FE370700900507F5
:10A6000098C3138741E28327C4FE98C38327C4FEFF
:10A610001147D8C38327C4FE03C787001367070108
:10A620002384E700138741DE8327C4FE98D30327E2
:10A6300084FE938741DEB307F7403E878327C4FE3D
:10A64000D8D38327C4FE03C7870213670701238477
:10A65000E70201008327C4FEDC43EDFF938741E25C
:10A660009C432322F4FE832744FE3E8532544561F9
:10A670008280011122CE00102326A4FE2324B4FEE2
:10A68000032784FE8327C4FE1CC3010072440561B6
:10A690008280797122D60018232EA4FC8327C4FD62
:10A6A0009C432326F4FE8327C4FE3E853254456135
:10A6B0008280011106CE22CC00102326A4FE232482
:10A6C000B4FE032784FEB767101A9107BA97BE85B8
:10A6D0000325C4FE793F0100F24062440561828097
:10A6E000011106CE22CC00102326A4FE0327C4FEAF
:10A6F000B767101A9107BA973E85613FAA873E85D2
:10A70000F240624405618280797106D622D4001835
:10A71000232EA4FC0327C4FD9307F00F63CCE704AA
:10A720008327C4FD63C807040327C4FD9357F7417B
:10A73000ED833E977D8BB307F7402326F4FE8327F6
:10A74000C4FD13D7F7417D8BBA9795878A072324D9
:10A75000F4FE032584FE6937AA8605478327C4FED5
:10A76000B317F70093C7F7FFF58F832584FE3E8567
:10A77000893711A00100B250225445618280011135
:10A7800006CE22CC00102326A4FEEF108020032743
:10A79000C4FE9947631DF704A9A0B717011C83A73E
:10A7A000872083C7470313F6F70FB777011C83A7EA
:10A7B000C7BB938617003777011C232ED7BA131710
:10A7C00086016187938641E3B6972380E700B777D8
:10A7D000011C83A7C7BB13F7F707B777011C23AE8C
:10A7E000E7BAB727101A938707139C43DDF70327AF
:10A7F000C4FE8947631EF70205A0B717011C83A793
:10A80000472083C7470393F7F70FBE85B777011C2F
:10A810001385C7C6EF30D045B717011C83A7472063
:10A820009C5BE1FFB777011C138587C7EF10E00D34
:10A83000EF10E0190100F2406244056182807971F5
:10A8400006D622D40018AA87232CB4FCA30FF4FC4C
:10A85000B727101A2326F4FE8347F4FD3777011C2F
:10A860001307C7C58A07BA979C4399EB8347F4FD42
:10A870003777011C130747C68A07BA979C4399C3C9
:10A880008547E1AA8327C4FE9C470347F4FD85461C
:10A890003397E6005D8F8327C4FE98C78327C4FEE5
:10A8A0009C470347F4FD85463397E6001347F7FFBF
:10A8B0007D8F8327C4FE98C78327C4FE9C4303472C
:10A8C000F4FD85463397E6005D8F8327C4FE98C369
:10A8D0000D4681450545EFD0FFE22324A4FE8327E2
:10A8E00084FE81E77370043001A0814601468145F2
:10A8F000032584FEEFD01FF08347F4FD3777011C5A
:10A900001307C7C58A07BA97032784FE98C30D4665
:10A9100081450545EFD01FDF2324A4FE832784FE55
:10A9200081E77370043001A081460146814503250B
:10A9300084FEEFD03FEC8347F4FD3777011C13070B
:10A9400047C68A07BA97032784FE98C38347F4FD56
:10A950008A07938627008347F4FD3777011C130786
:10A96000C7C58A07BA979C433E86B7A7001C938544
:10A97000E7773685EFE09FFF8347F4FD8A079386EC
:10A9800017008347F4FD3777011C130747C68A0772
:10A99000BA979C433E8681453685EFE03FFD83476D
:10A9A000F4FD8A0789073E8585338347F4FD8A07CE
:10A9B00085073E85913B0347F4FDB7273400938715
:10A9C0001704BA979E072322F4FEB7574C0013874B
:10A9D00007B4832784FDB357F70213970701418318
:10A9E000832744FE2393E702832744FED85313674B
:10A9F0006700D8D3832744FE03C7C7021367170035
:10AA00002386E702832744FED85313670710D8D361
:10AA1000832744FED85313670720D8D3832744FEE7
:10AA2000D85313670702D8D30347F4FD8547631A49
:10AA3000F700B777011C23AC07BAB777011C23AE28
:10AA400007BA8347F4FD89EBB777011C23A007BC45
:10AA5000B777011C23A207BC81473E85B250225420
:10AA600045618280397122DE80002A882E85B28578
:10AA70003686BA863E87C287A307F4FCAA872307D7
:10AA8000F4FCAE872316F4FCB287A305F4FCB6876A
:10AA90002305F4FCBA87A304F4FCA30704FE2324D3
:10AAA00004FE232204FE232004FE8347A4FC8D8B96
:10AAB000A30FF4FC834794FC230FF4FC8347F4FCBE
:10AAC00091E7B707101A2324F4FE1DA80347F4FCEE
:10AAD00085476319F700B707101A938707022324E5
:10AAE000F4FE39A80347F4FC89476319F700B70758
:10AAF000101A938707042324F4FE19A0232404FECC
:10AB0000832784FE638B07180347E4FC914763F2B5
:10AB1000E7188357C4FC638A07160357C4FC9307DE
:10AB2000F07F63E4E7160347B4FCBD4763EBE7142B
:10AB3000832784FE9843B70708005D8F832784FE30
:10AB400098C3832784FE9C4313E74700832784FE32
:10AB500098C3832784FE9C4313F7B7FF832784FEA3
:10AB600098C3832784FE9843B707FCFFFD177D8FAA
:10AB7000832784FE98C3832784FE98438347F4FD8C
:10AB80005D8F832784FE98C3832784FE9C430347FD
:10AB9000E4FD12075D8F832784FE98C3832784FE1C
:10ABA0009843832784FE98C3832784FE910723A0BC
:10ABB0000700232004FE8357C4FC92073E878327A7
:10ABC00004FED98F2320F4FE032704FEB7070008F4
:10ABD000D98F2320F4FE8347B4FCF2073E878327F6
:10ABE00004FED98F2320F4FE832784FEA1070327C8
:10ABF00004FE98C3832784FEB10723A007008327A0
:10AC000084FEC1071307400698C3832784FED1073B
:10AC10001307902698C3832784FE9C4313E74700BD
:10AC2000832784FE98C3832784FE9843B7070400D4
:10AC30005D8F832784FE98C30DA0832744FE85077C
:10AC40002322F4FE032744FEC1676368F70095479B
:10AC5000A307F4FE232204FE39A0832784FEC10744
:10AC60009C43E3DC07FC8347F4FE85EF832784FEE7
:10AC70009843B707F8FFFD177D8F832784FE98C39D
:10AC80000DA08547A307F4FE29A88947A307F4FE72
:10AC900011A88D47A307F4FE31A09147A307F4FE46
:10ACA00011A001008347F4FE3E8572542161828029
:10ACB000397106DE22DC8000232004FEB747101A1B
:10ACC000232EF4FC8327C4FD054723AEE70E232C77
:10ACD00004FCA30704FEEFE01FF6B707101A232AAF
:10ACE000F4FCB707101A938707022328F4FCB70770
:10ACF000101A938707042326F4FC854701478546ED
:10AD000013068002A9450145B13B894701478546A5
:10AD100013068002A9450545B13391470147854691
:10AD200013068002A9450945353B232404FE2DA8BE
:10AD3000B777011C138787E1832784FE8A07BA97B8
:10AD400037B7001C130747F598C3B777011C138763
:10AD500087E9832784FE8A07BA9723A00700832701
:10AD600084FE85072324F4FE032784FEFD47E3D1F8
:10AD7000E7FCB777011C938787E137B7001C1307FF
:10AD800007F0D8CFB777011C938787E137A7001C5E
:10AD90001307679FD8D7EFE07FE42D45EFE07FB939
:10ADA000EFE09FCFF3274030BE808687232CF4FC52
:10ADB000A30304FE31A8034774FEF16793850720BF
:10ADC0003A85EFF0DFA7834774FE8507A303F4FEFF
:10ADD000034774FE8947E310F7FE230304FE39A8F6
:10ADE000034764FEB7270600938507A83A85EFF06E
:10ADF0008F82834764FE85072303F4FE034764FEC6
:10AE00008947E31FF7FCA30704FED1A08347F4FEA4
:10AE10003E85312C0347F4FEB72726009385075A59
:10AE20003A85EFF04FB68347F4FE014681453E85F3
:10AE3000EFF06FE38347F4FE81453E85EFF06FEC62
:10AE40002320A4FE032704FEFD576305F700832794
:10AE500004FE99EB0347F4FEB777011C938787BC88
:10AE6000BA972380070099A80347F4FEB777011C1F
:10AE7000938787BCBA9705472380E700832704FEA2
:10AE800013F7F70F930700026311F7020347F4FE6D
:10AE9000B777011C9387C7BCBA9705472380E700A3
:10AEA000B777011C238A07BC11A80347F4FEB777C4
:10AEB000011C9387C7BCBA97238007008347F4FE21
:10AEC0003E85E12C8347F4FE8507A307F4FE034784
:10AED000F4FE8547E3FCE7F20545EFE0FF9EEFE077
:10AEE0005F98AA873E87930720066306F70013053D
:10AEF0002006EFE05F990100F250625421618280E8
:10AF0000011106CE22CC00102326A4FEEF007028EB
:10AF10004D23EF00D02B0100F24062440561828096
:10AF2000011106CE22CC00102326A4FE8327C4FEE6
:10AF3000FD8B3777011C130787E18A07BA9798437F
:10AF40008327C4FEFD8B3E8502970100F2406244D8
:10AF500005618280797122D626D40018232EA4FCA4
:10AF6000232604FE0327C4FDC947630CF70003270B
:10AF7000C4FDCD476307F7000327C4FDFD47631FEA
:10AF8000F704B777011C83A707BD13871700B777AE
:10AF9000011C23A8E7BCB777011C03A707BDCD4759
:10AFA00063F3E706F3274030BE84A6872326F4FE2A
:10AFB0000327C4FE8327C4FDB357F700858BA1C7C1
:10AFC00005478327C4FDB317F7002324F4FE832726
:10AFD00084FEF3B747302324F4FE35A0B777011C75
:10AFE000138787E98327C4FD8A07BA979C43138791
:10AFF0001700B777011C938687E98327C4FD8A076A
:10B00000B69798C311A0010001003254A2544561C3
:10B010008280411106C622C40008B1671385073536
:10B02000EFE0FFC30100B240224441018280797108
:10B0300006D622D426D20018AA87A30FF4FCA307B1
:10B0400004FE8347F4FD6398070EA30704FE81A066
:10B050008347F4FEB50793F7F70F8344F4FE3E856C
:10B06000EFE0BFAEAA873E87938741ECA697238087
:10B07000E7008347F4FEB50793F7F70F81453E8558
:10B08000EFE05FA68347F4FE8507A307F4FE0347BE
:10B09000F4FE8D47E3FEE7FAA30704FE81A0834791
:10B0A000F4FECD0793F7F70F8344F4FE3E85EFE0FF
:10B0B000DFA9AA873E87938741ECA6972380E70004
:10B0C0008347F4FECD0793F7F70F81453E85EFE008
:10B0D0007FA18347F4FE8507A307F4FE0347F4FE30
:10B0E0008547E3FEE7FAA30704FE81A08347F4FE49
:10B0F000E90793F7F70F8344F4FE3E85EFE0FFA4E2
:10B10000AA873E87938741ECA6972380E700834771
:10B11000F4FEE90793F7F70F85453E85EFE09F9C26
:10B120008347F4FE8507A307F4FE0347F4FE89472F
:10B13000E3FEE7FAA9A80347F4FD85476319F7047E
:10B14000A30704FE81A08347F4FEF50793F7F70FEA
:10B150008344F4FE3E85EFE05F9FAA873E87938796
:10B1600041ECA6972380E7008347F4FEF50793F7A9
:10B17000F70F85453E85EFE0FF968347F4FE850790
:10B18000A307F4FE0347F4FE9D47E3FEE7FA010040
:10B19000B2502254925445618280797106D622D4ED
:10B1A0000018AA87A30FF4FCA30704FE8347F4FD4D
:10B1B000CDEBA30704FE35A08347F4FEB50793F655
:10B1C000F70F8347F4FE138741ECBA9783C7070054
:10B1D000BE853685EFE01F918347F4FE8507A30700
:10B1E000F4FE0347F4FE8D47E3F8E7FCA30704FEF3
:10B1F00035A08347F4FECD0793F6F70F8347F4FE9F
:10B20000138741ECBA9783C70700BE853685EFE008
:10B210007F8D8347F4FE8507A307F4FE0347F4FE02
:10B220008547E3F8E7FCA30704FE35A08347F4FE57
:10B23000E90793F6F70F8347F4FE138741ECBA97BB
:10B2400083C70700BE853685EFE0DF898347F4FEBC
:10B250008507A307F4FE0347F4FE8947E3F8E7FCFC
:10B2600099A00347F4FD8547631FF702A30704FE77
:10B2700035A08347F4FEF50793F6F70F8347F4FEF6
:10B28000138741ECBA9783C70700BE853685EFE088
:10B290007F858347F4FE8507A307F4FE0347F4FE8A
:10B2A0009D47E3F8E7FC0100B250225445618280DB
:10B2B000797122D60018AA872E87232CC4FCA30FED
:10B2C000F4FCBA87231EF4FC0347F4FDB7273400CF
:10B2D00093871704BA979E072326F4FE010083275D
:10B2E000C4FE9C53858B93F7F70FF5FB032784FD72
:10B2F0008327C4FE98CB0357C4FD8327C4FED8CB55
:10B300008327C4FE03C7870113670701238CE70067
:10B3100081473E85325445618280011106CE22CCA0
:10B3200000102326A4FE0325C4FEEFC0FFFEAA875B
:10B33000C207C1830326C4FEBE850145953F0100B7
:10B340003E85F240624405618280011106CE22CC26
:10B350000010A30704FE39A0FD55B777011C138523
:10B3600087C7E1299307F4FEBE85B777011C1385D3
:10B37000C7C6EF30001FAA87E5F38307F4FE3E85BA
:10B38000F240624405618280411122C60008B7275D
:10B39000011C9387878C3E85324441018280411194
:10B3A00022C60008B777011C9387878C3E853244FC
:10B3B00041018280411106C622C40008B707011C62
:10B3C00013858732EF10E028B707011C1385C733B8
:10B3D000EF102028B707011C13854735EF106027B1
:10B3E0000100B240224441018280411106C622C4BC
:10B3F00000081305401FEF109075E5BF011106CE40
:10B4000022CC26CA0010EFF0BF8A2131232604FE89
:10B41000F32750302326F4FE85679387078873A0AF
:10B420004730EF2060768D37AA84953FAA87BE8586
:10B430002685EF20D0184146938541EBB777011C54
:10B440001385C7C6EF20F07781460146B707011C78
:10B4500093850737B777011C138587C749260100F5
:10B46000F2406244D24405618280411122C6000844
:10B4700073700430029001A0011122CE0010232627
:10B48000A4FE2324B4FE73700430029001A0411185
:10B4900022C600080100324441018280411122C6C7
:10B4A0000008B777011C83A787BD3E853244410160
:10B4B0008280011106CE22CC0010B777011C83A731
:10B4C00087BD13871700B777011C23ACE7BCEF10CB
:10B4D00030482326A4FE8327C4FEBC431387F7FF0E
:10B4E0008327C4FEB8C38327C4FEBC4389EB8327EC
:10B4F000C4FED85F8327C4FEB8C3EF103055EF20D9
:10B50000204E0100F240624405618280011122CE8A
:10B5100000102326A4FE8327C4FE9C430327C4FEF9
:10B520005843D8C38327C4FEDC430327C4FE184313
:10B5300098C38327C4FE0327C4FED8C38327C4FE51
:10B54000D8438327C4FE98C30100724405618280FA
:10B55000011122CE0010B777011C938747022326E2
:10B56000F4FE8327C4FE9C430327C4FEB307F740C1
:10B57000B337F00093F7F70F3E8572440561828080
:10B58000011106CE22CC0010EFC07FB42326A4FE0A
:10B59000C137AA8791E70325C4FEEFC0BFB32DA82A
:10B5A000B777011C938747029C43B1172324F4FE0D
:10B5B000832784FED1073E85913F832784FE9C57D5
:10B5C0003E85EF205043032584FEEF1060400325A5
:10B5D000C4FEEFC03FB04DBF0100F24062440561C0
:10B5E0008280011106CE22CC00102326A4FE493F02
:10B5F000FDBF411106C622C40008930800027D4821
:10B60000930700103777011C13070794814637B65C
:10B61000001C1306265EB705011C93850539377596
:10B62000011C1305858CEF10302CB777011C138596
:10B63000878CEF1050330100B240224441018280D8
:10B64000011122CE00102326A4FE8327C4FE032767
:10B65000C4FED8C38327C4FED8438327C4FE98C33F
:10B660000100724405618280011122CE0010232660
:10B67000A4FE2324B4FE8327C4FEDC43032784FEF8
:10B6800098C38327C4FED843832784FED8C3832767
:10B69000C4FE032784FED8C3832784FE0327C4FE89
:10B6A00098C30100724405618280011122CE00100E
:10B6B0002326A4FE8327C4FE9C430327C4FEB307AE
:10B6C000F74093B7170093F7F70F3E857244056173
:10B6D0008280011106CE22CC00102326A4FE8327EF
:10B6E000C4FED1073E85A93F81473E85F2406244B2
:10B6F00005618280797106D622D40018232EA4FC1D
:10B70000232CB4FCB287A30BF4FC032584FDEF10BB
:10B71000F045834774FD89C70547638BE70061A047
:10B72000832784FDD107BE850325C4FD353FA5A829
:10B730008327C4FD9C432326F4FE81A08327C4FEF7
:10B74000B1172324F4FE832784FD03C757038327FF
:10B7500084FE83C75703637DF700832784FE138726
:10B760004701832784FDD107BE853A85F53D21A891
:10B770008327C4FE9C432326F4FE0327C4FE8327AD
:10B78000C4FDE31DF7FA0327C4FE8327C4FD631A33
:10B79000F700832784FDD107BE850325C4FDE93565
:10B7A00011A00100010081473E85B250225445613D
:10B7B0008280797106D622D40018232EA4FC832718
:10B7C000C4FD9C43B1172326F4FE0325C4FEEF10ED
:10B7D000704181473E85B2502254456182800111FB
:10B7E00006CE22CC00102326A4FE2324B4FE23225E
:10B7F000C4FEB687A301F4FE8327C4FE032684FE9D
:10B8000089453E85EF10A0048327C4FE3E85D135CF
:10B81000832744FE1397070141838327C4FE239E99
:10B82000E7008327C4FE034734FEA384E700814773
:10B830003E85F240624405618280797106D622D449
:10B8400026D20018232EA4FC232CB4FCEFC03F8882
:10B85000AA848327C4FD83D7C7018DC38327C4FD72
:10B8600083D7C701FD171397070141838327C4FDC1
:10B87000239EE7002685EFC0FF8549A0832784FD2E
:10B8800091E72685EFC01F85F95795A8EF10500C5A
:10B890002326A4FE8327C4FE23A807028327C4FD12
:10B8A000138747018327C4FD83C797003E868325FE
:10B8B000C4FE3A858135832784FD6354F0028327D3
:10B8C000C4FE93874704130784FD3A8681453E856D
:10B8D000EF2040058327C4FE938747043E85EF1081
:10B8E000305F2685EFC00FFFEF10202D8327C4FEA9
:10B8F0009C5B89C78327C4FE9C5B11A081473E8562
:10B90000B2502254925445618280011106CE22CC5D
:10B9100026CA4AC800102326A4FE8144EFC02FFB8C
:10B920002A898327C4FED1073E854133AA8781EB4C
:10B930008327C4FED1073E85AD3D85441DA88327DE
:10B94000C4FE03D7C701C167FD17630FF700832744
:10B95000C4FE83D7C7018507139707014183832757
:10B96000C4FE239EE70031A04A85EFC0AFF6F5572D
:10B9700011A84A85EFC00FF685476394F400EF10D5
:10B98000C02381473E85F2406244D244424905616A
:10B990008280011106CE22CC0010EFC04FF3232687
:10B9A000A4FEB777011C83C787F193F7F70F8507CC
:10B9B00013F7F70FB777011C238CE7F00325C4FEBC
:10B9C000EFC04FF10100F240624405618280011135
:10B9D00006CE22CC0010EFC08FEF2326A4FEB7774F
:10B9E000011C83C787F193F7F70FFD1713F7F70FC4
:10B9F000B777011C238CE7F00325C4FEEFC08FED61
:10BA00000100F240624405618280797122D60018FB
:10BA1000232EA4FC232CB4FC232AC4FC8327C4FDBE
:10BA20002326F4FE832784FD93F7F70F2322F4FEE9
:10BA3000032744FD8D4763FEE70C8327C4FD8D8BF0
:10BA4000E9EB8327C4FD2324F4FE832744FEA207E9
:10BA5000032744FED98F2320F4FE832704FEC20768
:10BA6000032704FED98F2320F4FE91A8832784FEA8
:10BA7000138747002324E4FE032704FE98C383278B
:10BA800084FE138747002324E4FE032704FE98C3A3
:10BA9000832784FE138747002324E4FE032704FE44
:10BAA00098C3832784FE138747002324E4FE0327DB
:10BAB00004FE98C3832744FDC117232AF4FC0327FF
:10BAC00044FDBD47E3E4E7FA39A8832784FE1387E2
:10BAD00047002324E4FE032704FE98C3832744FD84
:10BAE000F117232AF4FC032744FD8D47E3EFE7FC1D
:10BAF000832784FE2326F4FE29A88327C4FE138708
:10BB000017002326E4FE032744FE62076187238093
:10BB1000E700832744FD1387F7FF232AE4FCF1FFA6
:10BB20008327C4FD3E85325445618280797122D6D7
:10BB30000018232EA4FC232CB4FC232AC4FC832746
:10BB4000C4FD2326F4FE832784FD2324F4FE03276B
:10BB500084FE8327C4FE6374F708032784FE8327CB
:10BB600044FDBA970327C4FE637BF7060327C4FE90
:10BB7000832744FDBA972326F4FE032784FE8327F8
:10BB800044FDBA972324F4FE1DA0832784FEFD17ED
:10BB90002324F4FE8327C4FEFD172326F4FE832707
:10BBA00084FE038707008327C4FE2380E7008327E2
:10BBB00044FD1387F7FF232AE4FCE1FB05A80327D4
:10BBC00084FE930717002324F4FE8327C4FE938684
:10BBD00017002326D4FE030707002380E7008327EE
:10BBE00044FD1387F7FF232AE4FCF1FB8327C4FD00
:10BBF0003E85325445618280797122D60018232E09
:10BC0000A4FC232CB4FC232AC4FC832744FDB5C721
:10BC10008327C4FD2326F4FE832784FD2324F4FE1A
:10BC2000032784FE930717002324F4FE8327C4FE12
:10BC3000938617002326D4FE030707002380E7001E
:10BC4000838707009DE309A88327C4FE1387170095
:10BC50002326E4FE23800700832744FDFD17232AC3
:10BC6000F4FC832744FDEDF309A8832744FDFD1769
:10BC7000232AF4FC832744FDC5F78327C4FD3E85B2
:10BC8000325445618280411106C622C40008B707BC
:10BC9000011C13858739EF00D01BB707011C1385E2
:10BCA000473AEF00101BB707011C1387873C9546E6
:10BCB00005468D45B707011C1385473DEF007019F8
:10BCC000B707011C1385473FEF00B0180100B240D1
:10BCD000224441018280797122D60018232EA4FCCF
:10BCE000232CB4FC032784FDA9476317F70283279D
:10BCF000C4FD9C433E87A947B377F7022326F4FE91
:10BD00008327C4FD9C433E87A947B357F7023E876C
:10BD10008327C4FD98C339A88327C4FD9C43BD8BEA
:10BD20002326F4FE8327C4FD9C4391833E8783270B
:10BD3000C4FD98C38327C4FE3E853254456182808A
:10BD4000011122CE26CC00102326A4FE81441DA082
:10BD5000A6878A07A69786073E868327C4FE9C434C
:10BD6000938617000327C4FE14C383870700B29786
:10BD7000938407FD8327C4FE9C4383870700938732
:10BD800007FD3E87A547E3F5E7FCA6873E8572449D
:10BD9000E244056182805D7186C6A2C4A6C2CAC0A3
:10BDA00080082326A4FC2324B4FC2322C4FC2320E3
:10BDB000D4FC232EE4FA232CF4FA232A04FB832751
:10BDC00084FB2324F4FE8324C4FB832744FB93F7E2
:10BDD000070491C7B707011C9387876729A0B70796
:10BDE000011C9387C7682322F4FE832744FBC18B81
:10BDF00091C7832744FBF99B232AF4FA832744FB4A
:10BE0000858B81C79307000319A093070002A30144
:10BE1000F4FEA30704FE832744FB898BA9C3832771
:10BE200044FC63DD07009307D002A307F4FE8327D9
:10BE300044FCB307F0402322F4FC15A0832744FB05
:10BE4000918B91C79307B002A307F4FE09A883273B
:10BE500044FBA18B89C793070002A307F4FE0149A5
:10BE6000832744FCA9E3CA8713891700130704FF3B
:10BE7000BA97130700032380E7FE0DA8930744FC3D
:10BE8000832504FC3E85813DAA873E87832744FEA7
:10BE90003E97CA871389170003070700930604FF1C
:10BEA000B6972380E7FE832744FCE9FB832784FBC6
:10BEB00063D42701232C24FB832784FB9D8C8327B9
:10BEC00044FBC58B95EF8307F4FE95C7635590023D
:10BED000FD1415A00327C4FC832784FC6378F700B6
:10BEE0008327C4FC130700022380E7008327C4FCD8
:10BEF00085072326F4FCA6879384F7FFE34CF0FC28
:10BF00008307F4FE9DC30327C4FC832784FC637866
:10BF1000F7008327C4FC0347F4FE2380E700FD14E9
:10BF20008327C4FC85072326F4FC832744FBC18BAD
:10BF3000B1EB15A00327C4FC832784FC6378F700CA
:10BF40008327C4FC034734FE2380E7008327C4FC17
:10BF500085072326F4FCA6879384F7FFE34CF0FCC7
:10BF600015A00327C4FC832784FC6378F70083278C
:10BF7000C4FC130700032380E7008327C4FC850764
:10BF80002326F4FC832784FB1387F7FF232CE4FA92
:10BF9000E349F9FC2DA00327C4FC832784FC637BC1
:10BFA000F700930704FFCA97038707FE8327C4FCA3
:10BFB0002380E7008327C4FC85072326F4FCCA8777
:10BFC0001389F7FF6357F002832784FEE9F715A072
:10BFD0000327C4FC832784FC6378F7008327C4FC11
:10BFE000130700022380E7008327C4FC850723266C
:10BFF000F4FCA6879384F7FFE34CF0FC8327C4FC92
:10C000003E85B640264496440649616182805D7152
:10C0100086C6A2C48008232EA4FA232CB4FA232AAD
:10C02000C4FA2328D4FA8327C4FB2320F4FE032771
:10C03000C4FB832784FBBA97232EF4FC0327C4FD9B
:10C040008327C4FB6373F75CFD57232EF4FC03279F
:10C05000C4FD8327C4FBB307F740232CF4FA75A370
:10C06000832744FB03870700930750026306F70208
:10C07000032704FE8327C4FD637AF700832744FB6C
:10C0800003870700832704FE2380E700832704FE3D
:10C0900085072320F4FEADA3230B04FC832744FB78
:10C0A0008507232AF4FA832744FB038707009307B5
:10C0B000D0026319F700834764FD93E70701230B60
:10C0C000F4FCE9BF832744FB038707009307B00212
:10C0D0006319F700834764FD93E74700230BF4FCE3
:10C0E00075BF832744FB038707009307000263198A
:10C0F000F700834764FD93E78700230BF4FC79BFC7
:10C10000832744FB03870700930730026319F70076
:10C11000834764FD93E70702230BF4FC41B78327B1
:10C1200044FB03870700930700036319F700834765
:10C1300064FD93E71700230BF4FC8DB70100FD5756
:10C140002328F4FC832744FB83870700938707FD9C
:10C150003E87A54763EAE700930744FB3E85EFF07F
:10C160003FBE2328A4FCB9A0832744FB0387070014
:10C170009307A0026310F704832744FB8507232A53
:10C18000F4FA832704FB138747002328E4FA9C432F
:10C190002328F4FC832704FD63DE0700832704FDC6
:10C1A000B307F0402328F4FC834764FD93E70701BD
:10C1B000230BF4FCFD572326F4FC832744FB038761
:10C1C00007009307E0026315F706832744FB850702
:10C1D000232AF4FA832744FB83870700938707FD0C
:10C1E0003E87A54763EAE700930744FB3E85EFF0EF
:10C1F0003FB52326A4FC3DA0832744FB038707000B
:10C200009307A0026310F702832744FB8507232AC4
:10C21000F4FA832704FB138747002328E4FA9C439E
:10C220002326F4FC8327C4FC63D40700232604FCE4
:10C23000A30A04FC832744FB0387070093078006B7
:10C24000630AF700832744FB038707009307C006B0
:10C25000631DF700832744FB83870700A30AF4FCD0
:10C26000832744FB8507232AF4FAA947A30BF4FC90
:10C27000832744FB838707009387B7FD13073005A7
:10C280006367F72813972700B707011C9387874236
:10C29000BA979C438287834764FDC18B85EF15A0C5
:10C2A000032704FE8327C4FD6378F700832704FE79
:10C2B000130700022380E700832704FE850723205D
:10C2C000F4FE832704FDFD172328F4FC832704FDD7
:10C2D000E348F0FC832704FB138747002328E4FA94
:10C2E0009C43A305F4FC032704FE8327C4FD637865
:10C2F000F700832704FE0347B4FC2380E70083276D
:10C3000004FE85072320F4FE15A0032704FE8327DF
:10C31000C4FD6378F700832704FE1307000223801F
:10C32000E700832704FE85072320F4FE832704FD0E
:10C33000FD172328F4FC832704FDE348F0FCC9A47F
:10C34000832704FB138747002328E4FA9C43232C0C
:10C35000F4FC832784FD99E7B707011C9387074204
:10C36000232CF4FC232204FE31A0832744FE8507FE
:10C370002322F4FE032744FE832704FD630AF7000B
:10C38000832744FE032784FDBA9783870700F1FFC4
:10C390008327C4FC635CF000032744FE8327C4FCAE
:10C3A00063D6E7008327C4FC2322F4FE834764FDA1
:10C3B000C18B8DEF15A0032704FE8327C4FD63788E
:10C3C000F700832704FE130700022380E70083277A
:10C3D00004FE85072320F4FE832704FD1387F7FF5F
:10C3E0002328E4FC032744FEE347F7FC232404FE50
:10C3F00035A8032704FE8327C4FD637AF70083274B
:10C4000084FD03870700832704FE2380E70083273A
:10C4100004FE85072320F4FE832784FD8507232C53
:10C42000F4FC832784FE85072324F4FE032784FE7F
:10C43000832744FEE34FF7FA15A0032704FE832762
:10C44000C4FD6378F700832704FE130700022380EE
:10C45000E700832704FE85072320F4FE832704FDDD
:10C460001387F7FF2328E4FC032744FEE347F7FC88
:10C4700041AA032704FDFD57631BF700A1472328AA
:10C48000F4FC834764FD93E71700230BF4FC832738
:10C4900004FB138747002328E4FA9C433E86834726
:10C4A00064FD3E888327C4FC032704FDC146832521
:10C4B000C4FD032504FEEFF01F8E2320A4FE89A2F5
:10C4C000032704FE8327C4FD6378F700832704FE57
:10C4D000130750022380E700832704FE85072320EB
:10C4E000F4FE39AAA147A30BF4FC59A0834764FDCD
:10C4F00093E70704230BF4FCC147A30BF4FC8DA8BE
:10C50000834764FD93E72700230BF4FC8DA00327EA
:10C5100004FE8327C4FD6378F700832704FE130716
:10C5200050022380E700832704FE85072320F4FEC2
:10C53000832744FB838707008DC7032704FE8327D7
:10C54000C4FD637AF700832744FB03870700832732
:10C5500004FE2380E700832704FE85072320F4FEE2
:10C5600045A0832744FBFD17232AF4FA51A80100B4
:10C57000034754FD9307C006631CF700832704FBA1
:10C58000138747002328E4FA9C432326F4FEB1A036
:10C59000034754FD930780066318F702832704FBC3
:10C5A000138747002328E4FA9C43C207C18323264C
:10C5B000F4FE834764FD898B8DC38327C4FEC207C5
:10C5C000C1872326F4FE11A8832704FB13874700A5
:10C5D0002328E4FA9C432326F4FE0326C4FE834664
:10C5E00074FD834764FD3E888327C4FC032704FD54
:10C5F0008325C4FD032504FEEFF0EFF92320A4FEFC
:10C60000832744FB8507232AF4FA832744FB838787
:10C610000700E39707A4832784FB8DC3032704FE49
:10C620008327C4FD6377F700832704FE2380070078
:10C6300031A08327C4FDFD1723800700032704FED4
:10C640008327C4FBB307F7403E85B64026446161AB
:10C6500082805D7106D622D40018232EA4FC4CC023
:10C6600010C454C418C85CC8232C0401232E140120
:10C670009307040291172324F4FE832784FEBE86C9
:10C680000326C4FD9305F007B777011C138507A4A3
:10C69000EFF0FF97AA872326F4FE0327C4FE930733
:10C6A000F00763F6E7009307F0072326F4FEB77759
:10C6B000011C138507A4EFE05FC60100B2502254AD
:10C6C00061618280011122CE00102326A4FE8327FF
:10C6D000C4FE99E3814779A08327C4FE93F7F70F3F
:10C6E00091CF8327C4FE93F7F70F3707011C130779
:10C6F0008757BA9783C707008507ADA00327C4FEF5
:10C70000C167938707F0F98F99CF8327C4FEA1876C
:10C7100093F7F70F3707011C13078757BA9783C79B
:10C720000700A50781A00327C4FEB707FF00F98F04
:10C7300099CF8327C4FEC18793F7F70F3707011CF2
:10C7400013078757BA9783C70700C50721A8832710
:10C75000C4FEE1833707011C13078757BA9783C7C5
:10C760000700E5073E85724405618280011122CEF3
:10C7700000102326A4FE2324B4FE8327C4FE9C437A
:10C78000032784FED8C38327C4FE9843832784FEEF
:10C7900098C38327C4FE032784FE98C3832784FE9F
:10C7A0000327C4FED8C301007244056182800111D1
:10C7B00022CE00102326A4FE8327C4FE9C43032719
:10C7C000C4FE5843D8C38327C4FEDC430327C4FEFA
:10C7D000184398C38327C4FE0327C4FED8C3832706
:10C7E000C4FED8438327C4FE98C301007244056188
:10C7F0008280797122D60018232EA4FC232604FE01
:10C800002DA8B717011C1387871B8327C4FE920727
:10C81000BA979C430327C4FD631CF7008327C4FE1B
:10C8200013974700B717011C9387871BBA9721A856
:10C830008327C4FE85072326F4FE0327C4FE8D4705
:10C84000E3D1E7FC81473E853254456182807971AE
:10C8500006D622D426D20018232EA4FC232CB4FC06
:10C86000232AC4FC232604FE032584FD59372324F0
:10C87000A4FE1123832784FEDC432326F4FE19A89B
:10C880008327C4FED1172322F4FE8327C4FE9C43D2
:10C890002326F4FE832784FE91070327C4FEE311B9
:10C8A000F7FE092B832784FD93F7F70F93E707F82B
:10C8B00013F7F70F8327C4FD2384E7008327C4FD04
:10C8C0002146832544FD3E85EFF00FB3EFB03F8056
:10C8D000AA84832784FE138747008327C4FDB107FA
:10C8E000BE853A8561352685EFB0CFFE0100B25096
:10C8F0002254925445618280011106CE22CC26CA70
:10C9000000102326A4FE8327C4FE23840700EFB073
:10C910000FFCAA848327C4FEB1073E85493D2685C6
:10C92000EFB04FFB0100F2406244D24405618280C7
:10C93000797106D622D426D20018232EA4FC232CEB
:10C94000B4FC0325C4FD75352326A4FE8327C4FE4D
:10C95000DC473E85EF10405B2324A4FE832784FE42
:10C9600099E3814785A08327C4FEDC473E86814545
:10C97000032584FEEFF06F898327C4FD13F7F70FBB
:10C98000832784FE2384E700832784FEA384070093
:10C99000832784FE2146832584FD3E85EFF0CFA5C5
:10C9A000EFB0EFF2AA848327C4FE138747008327E2
:10C9B00084FEB107BE853A85553B2685EFB08FF1E1
:10C9C000832784FE3E85B250225492544561828072
:10C9D000011106CE22CC26CA00102326A4FE8327EE
:10C9E000C4FE23840700EFB08FEEAA848327C4FE21
:10C9F000B1073E856D3B2685EFB0CFED0325C4FE24
:10CA0000EF10607F0100F2406244D24405618280F1
:10CA1000011122CE00102326A4FE8327C4FE83C763
:10CA20008700E207E18763D40700854711A08147AB
:10CA30003E85724405618280011122CE00102326BA
:10CA4000A4FE8327C4FE0327C4FED8C38327C4FEE5
:10CA5000D8438327C4FE98C30100724405618280D5
:10CA6000011122CE00102326A4FE2324B4FE832726
:10CA7000C4FEDC43032784FE98C38327C4FED84347
:10CA8000832784FED8C38327C4FE032784FED8C32C
:10CA9000832784FE0327C4FE98C301007244056106
:10CAA0008280011122CE00102326A4FE8327C4FE1B
:10CAB0009C430327C4FE5843D8C38327C4FEDC43EA
:10CAC0000327C4FE184398C38327C4FE0327C4FE6C
:10CAD000D8C38327C4FED8438327C4FE98C301006C
:10CAE000724405618280011122CE00102326A4FE2B
:10CAF0008327C4FE9C430327C4FEB307F74093B7C4
:10CB0000170093F7F70F3E8572440561828041114B
:10CB100006C622C426C20008B777011C239E07BCA4
:10CB2000814419A813973400B777011C9387C7F184
:10CB3000BA973E8511378504FD47E3D597FEB77751
:10CB4000011C7D47238EE700B777011C23A007BE99
:10CB5000B777011C23A00702B777011C1385470292
:10CB6000E13D0100B24022449244410182804111E2
:10CB700006C622C40008B777011C83A707023E85BA
:10CB8000EFF05FB4AA87FD17BE80B777011C13874B
:10CB9000C7F193973000BA979C439380C7FEB7774D
:10CBA000011C23A017BE9387C0013E85EFB0EFD2D2
:10CBB0000100B240224441018280011106CE22CC04
:10CBC0000010EFB0CFD02326A4FEB777011C8397C7
:10CBD000C7BDD5E3B777011C83A707023E85EFF0F9
:10CBE0007FAEAA87FD17BE80B777011C1387C7F1F8
:10CBF00093973000BA979C43B1172324F4FEB7777C
:10CC0000011C83A707BE032784FE6306F70613F7FC
:10CC1000F00FB777011C238EE700B777011C83A7BD
:10CC200007BE2322F4FEB777011C032784FE23A04E
:10CC3000E7BEB777011C83C787F193F7F70F8DE342
:10CC4000832744FEF1073E87832784FEF107BE85D4
:10CC50003A85EFB04FC90325C4FEEFB0AFC705A0BA
:10CC6000832744FEF1073E87832784FEF107BE85B4
:10CC70003A85EF3080580325C4FEEFB0AFC5F240CF
:10CC8000624405618280011106CE22CC26CA0010C2
:10CC90002326A4FEEFB0AFC3AA848327C4FE83C7B4
:10CCA0004703E207E187C19BE207E18793E71700AB
:10CCB000E207E18713F7F70F8327C4FE238AE70211
:10CCC0008327C4FE83C7570313973700B777011C28
:10CCD0009387C7F13E978327C4FED107BE853A8567
:10CCE00041338327C4FE985FB777011C83A70702EF
:10CCF0005D8FB777011C23A0E7022685EFB08FBDBB
:10CD00000100F2406244D24405618280011106CEE6
:10CD100022CC26CA00102326A4FEEFB04FBBAA8463
:10CD20008327C4FED1073E85AD3B8327C4FE83C75E
:10CD3000570313973700B777011C9387C7F1BA974A
:10CD40003E855533AA8799CF8327C4FE9C5F13C7BE
:10CD5000F7FFB777011C83A707027D8FB777011C08
:10CD600023A0E7022685EFB0EFB60100F24062444F
:10CD7000D24405618280411106C622C40008EFB08A
:10CD80000FB5AA80B777011C8397C7BDC207C183BF
:10CD90008507C207C183139707014187B777011C35
:10CDA000239EE7BC0685EFB0EFB20100B2402244FB
:10CDB00041018280411106C622C40008EFB02FB1A4
:10CDC000AA80B777011C8397C7BDC207C183FD172F
:10CDD000C207C183139707014187B777011C239EC0
:10CDE000E7BCB777011C8397C7BD6340F002B777F4
:10CDF000011C239E07BC0685EFB0CFADB777011CA1
:10CE000083A707BE91C7553B21A00685EFB08FAC25
:10CE10000100B240224441018280011122CE001063
:10CE20002326A4FE8327C4FE0327C4FED8C383277A
:10CE3000C4FED8438327C4FE98C301007244056131
:10CE40008280011122CE00102326A4FE2324B4FEEA
:10CE50008327C4FE9C43032784FED8C38327C4FED4
:10CE60009843832784FE98C38327C4FE032784FE48
:10CE700098C3832784FE0327C4FED8C301007244ED
:10CE800005618280011122CE00102326A4FE2324F6
:10CE9000B4FE8327C4FEDC43032784FE98C38327A4
:10CEA000C4FED843832784FED8C38327C4FE032748
:10CEB00084FED8C3832784FE0327C4FE98C30100E1
:10CEC000724405618280011122CE00102326A4FE47
:10CED0008327C4FE9C430327C4FE5843D8C383273B
:10CEE000C4FEDC430327C4FE184398C38327C4FE53
:10CEF0000327C4FED8C38327C4FED8438327C4FEB8
:10CF000098C30100724405618280011106CE22CCD3
:10CF100026CA00102326A4FEEFB06F9BAA848327A5
:10CF2000C4FEBC5B99C78327C4FEBC5B0325C4FE5B
:10CF300082972685EFB00F9A0100F2406244D244F6
:10CF400005618280011106CE22CC26CA0010B77777
:10CF5000011C83A707BE2326F4FEEFB04F97AA84D7
:10CF60000325C4FE5D370325C4FE4D338327C4FE6D
:10CF70001147238AE7028327C4FE938747043E852F
:10CF800011270325C4FEEFF0BFA82A878547631742
:10CF9000F7000325C4FEEFF03F9611A88327C4FED7
:10CFA000D107BE85B777011C13854702593DEFF0C5
:10CFB000DFC02685EFB00F920100F2406244D244F8
:10CFC00005618280797106D622D400182326A4FE3A
:10CFD0002324B4FE2322C4FE2320D4FE232EE4FC0B
:10CFE000232CF4FCC287232814FDA30BF4FC832715
:10CFF000C4FED1073E8515358327C4FE032744FEB2
:10D0000098D38327C4FE032704FED8D38327C4FE06
:10D010000327C4FD98D78327C4FE032784FDD8D7F0
:10D020008327C4FE98578327C4FEDC573E869305AA
:10D0300030023A85EFE07F9D8327C4FE8853832723
:10D04000C4FECC538327C4FE98578327C4FEDC5705
:10D05000F1173E97B7D7001C938647F43A86EF3016
:10D06000800F2A878327C4FED8CF8327C4FE0347B7
:10D0700074FD238BE7028327C4FE034774FDA38A54
:10D08000E7028327C4FE23AC07028327C4FE0327DD
:10D0900004FDD8DF8327C4FE032704FDB8C383271C
:10D0A000C4FE23A807028327C4FE238A070283271E
:10D0B000C4FE23A807068327C4FE23AA07068327E6
:10D0C000C4FE138547048325C4FE81470147832698
:10D0D000C4FE37D6001C13062644A92B81473E8583
:10D0E000B250225445618280797106D622D400184C
:10D0F0002326A4FE2324B4FE2322C4FE2320D4FE30
:10D10000232EE4FC232CF4FCC287232814FDA30B5C
:10D11000F4FC032684FE85450325C4FEEFF02FF3BF
:10D12000834774FD832804FD3E88832784FD0327FD
:10D13000C4FD832604FE032644FE832584FE0325C6
:10D14000C4FE4935AA873E85B2502254456182808B
:10D15000411122C60008B777011C83A707BE3E8590
:10D16000324441018280011106CE22CC00102326D8
:10D17000A4FE8327C4FE03C767038327C4FEA38AD4
:10D18000E7028327C4FE83C757033E878547B397CB
:10D19000E7003E878327C4FE98DF8327C4FE094744
:10D1A000238AE7020325C4FE352C5D37AA8799C37D
:10D1B000EFF0BFA081473E85F24062440561828066
:10D1C000397106DE22DC8000232EA4FC232CB4FC63
:10D1D000232AC4FC2328D4FC2324F4FCBA87A30705
:10D1E000F4FC8325C4FD0545EFF08FF42326A4FE4F
:10D1F0008327C4FE99E38147A9A0032504FDEF001E
:10D20000B0502324A4FE832784FE99E70325C4FE9F
:10D21000EFF00FFC814735A08347F4FC832884FCA2
:10D220003E88832704FD032784FE832644FD0326CE
:10D2300084FD8325C4FD0325C4FEEFF0BFD88327FA
:10D24000C4FE3E85F250625421618280011106CEF7
:10D2500022CC26CA0010EFA09FE7AA84B777011C52
:10D2600083A707BE2326F4FE8327C4FE83C7470394
:10D2700013F7F70085476319F7048327C4FED84BDB
:10D280008327C4FE9C4F6301F7048327C4FED107A4
:10D290003E85EFF05FC38327C4FE83C75703139710
:10D2A0003700B777011C9387C7F13E978327C4FEE9
:10D2B000D107BE853A85EFF0FFBC2685EFA09FE140
:10D2C000EFF0BF8F814729A02685EFA0BFE08147FF
:10D2D0003E85F2406244D24405618280797106D66F
:10D2E00022D426D20018232EA4FCEFA05FDEAA844D
:10D2F000B777011C83A707BE2326F4FE0325C4FECF
:10D30000B5208327C4FE938747041307C4FD3A86DC
:10D3100081453E85012D8327C4FE938747043E85C2
:10D32000452E2685EFA01FDBEFF03F898327C4FE43
:10D33000985BF9576316F7008327C4FE23A80702FA
:10D3400081473E85B250225492544561828001113A
:10D3500006CE22CC00102326A4FE0325C4FEBD3F2A
:10D36000AA873E85F240624405618280011106CEA3
:10D3700022CC26CA00102326A4FE8327C4FE83C71E
:10D38000470313F7F70085476304F700FD57A9A08B
:10D39000EFA0FFD3AA840325C4FEEFF03F978327B5
:10D3A000C4FE83C74703E207E187C19BE207E18729
:10D3B00093E72700E207E18713F7F70F8327C4FEFF
:10D3C000238AE7028327C4FE938747043E8501230F
:10D3D0002685EFA03FD081473E85F2406244D2448B
:10D3E00005618280011106CE22CC26CA00102326B8
:10D3F000A4FE8327C4FE83C7470313F7F7008947BA
:10D400006304F700FD5705A8EFA07FCCAA8483270B
:10D41000C4FED1073E85EFF01FAB8327C4FE938780
:10D4200047043E856D212685EFA0DFCA0325C4FE93
:10D43000EFF07F8581473E85F2406244D24405612A
:10D440008280797106D622D40018232EA4FC83276B
:10D45000C4FD2326F4FE8327C4FE795798DB832777
:10D46000C4FED1073E85EFF01FA60325C4FEEFF0F2
:10D470009F81EFF08FF40100B25022544561828009
:10D48000011122CE00102326A4FE8327C4FE032709
:10D49000C4FED8C38327C4FED8438327C4FE98C3E1
:10D4A0000100724405618280011122CE0010232602
:10D4B000A4FE2324B4FE8327C4FE9C43032784FEDA
:10D4C000D8C38327C4FE9843832784FE98C3832749
:10D4D000C4FE032784FE98C3832784FE0327C4FE6B
:10D4E000D8C30100724405618280011122CE001070
:10D4F0002326A4FE8327C4FE9C430327C4FE58436F
:10D50000D8C38327C4FEDC430327C4FE184398C353
:10D510008327C4FE0327C4FED8C38327C4FED84391
:10D520008327C4FE98C30100724405618280011103
:10D5300022CE00102326A4FE8327C4FE9C4303278B
:10D54000C4FEB307F74093B7170093F7F70F3E8574
:10D55000724405618280397106DE22DC8000232E50
:10D56000A4FC232CB4FC232AC4FC2328D4FCBA87B3
:10D57000A307F4FC8327C4FD0347F4FCA384E7005E
:10D580008327C4FD83C79700F99B13F7F70F832701
:10D59000C4FDA384E7008327C4FD032784FDD8CFFF
:10D5A0008327C4FD032744FD98D38327C4FD23A408
:10D5B00007028327C4FD032704FDD8D3232604FED6
:10D5C00005A08327C4FE89078E070327C4FDBA97E9
:10D5D00091073E8575358327C4FE85072326F4FE13
:10D5E0008327C4FEE35FF0FC0100F2506254216126
:10D5F0008280797106D622D40018232EA4FC23261B
:10D6000004FE05A08327C4FE89078E070327C4FDF7
:10D61000BA9791073E85D13D8327C4FE850723260F
:10D62000F4FE8327C4FEE35FF0FC0100B2502254F5
:10D6300045618280797106D622D400182326A4FE83
:10D640002324B4FE2322C4FE2320D4FE232EE4FC94
:10D65000A30DF4FC032684FEA9450325C4FEEFF0C8
:10D660000F9F8347B4FD3E878326C4FD032604FE37
:10D67000832544FE0325C4FEF93D0100B250225427
:10D6800045618280011106CE22CC26CA00102326D5
:10D69000A4FEEFA0DFA3AA840325C4FE993F83273D
:10D6A000C4FE83C79700F99B13F7F70F8327C4FEC7
:10D6B000A384E7002685EFA0FFA10325C4FEEFF0B9
:10D6C000AFA381473E85F2406244D2440561828027
:10D6D000397106DE22DC26DA80002326A4FCEFA0C6
:10D6E0001F9FAA840325C4FC29378327C4FC83C752
:10D6F0009700F99B13F7F70F8327C4FCA384E70077
:10D70000EFD0DFD92A878327C4FCDC533E978327D9
:10D71000C4FC98D7B777011C938747BE2322F4FE39
:10D72000832744FE232CF4FC232604FEE1A8832750
:10D73000C4FE8A07130704FFBA9783A787FE9C439A
:10D740002320F4FE8327C4FE8E07D107B307F040E1
:10D75000032704FEBA97232EF4FC8327C4FD9857B1
:10D760008327C4FC9C576300F7028327C4FD9857A6
:10D770008327C4FC9C571D8FB707008093C7E7FF22
:10D7800063F7E70411A001008327C4FE8A0713078B
:10D7900004FFBA9783A787FE98438327C4FE8A07AE
:10D7A000930604FFB69723A4E7FE8327C4FE8A07E7
:10D7B000130704FFBA9703A787FE8327C4FE8E07CB
:10D7C000832644FEB697DC43E313F7F611A001006D
:10D7D0008327C4FE9DC38327C4FE8A07130704FF63
:10D7E000BA9703A787FE8327C4FE850721078A0708
:10D7F000930604FFB69723A4E7FE8327C4FE85079C
:10D800002326F4FE8327C4FECDD3B777011C83A75C
:10D81000C7BE13871700B777011C23A6E7BEB777EB
:10D82000011C83A7C7BE2324F4FE032784FD83279E
:10D83000C4FCD107BE853A85EFF01FC78947232670
:10D84000F4FE89A8832784FE8D8BB9EB05478327D7
:10D85000C4FEB307F7408A07130704FFBA9783A6ED
:10D8600087FE05478327C4FEB307F74089078E0765
:10D870000327C4FCBA979107BE853685EFF0DFC257
:10D88000832784FE89832324F4FE8327C4FE85072F
:10D890002326F4FE0327C4FE8547E3F5E7FA11A02B
:10D8A00001008327C4FC83C7970093E7170013F791
:10D8B000F70F8327C4FCA384E7002685EFA09F8190
:10D8C00081473E85F2506254D25421618280011119
:10D8D00006CE22CC26CA00102326A4FE8327C4FE2F
:10D8E00083C79700858B99E3FD573DA0EFA02FFEDE
:10D8F000AA840325C4FEEFF0DFCF8327C4FE83C7CD
:10D900009700F99B13F7F70F8327C4FEA384E70062
:10D910002685EFA02FFC81473E85F2406244D24429
:10D9200005618280011106CE22CC00102326A4FEC0
:10D930002324B4FE2322C4FEEFA06FF9AA8003279C
:10D9400084FE914763E4E708832784FE139727004A
:10D95000B707011C9387076ABA979C43828783277E
:10D96000C4FED853832744FE98C395A0832744FE62
:10D9700098438327C4FED8D399A88327C4FE83C7BE
:10D980009700F59B13F7F70F8327C4FEA384E700E6
:10D990003DA88327C4FE83C7970093E7270013F7AA
:10D9A000F70F8327C4FEA384E70015A08327C4FED6
:10D9B00083C79700858B91C7832744FE054798C38B
:10D9C00039A0832744FE23A0070011A0010006858B
:10D9D000EFA04FF081473E85F240624405618280AE
:10D9E000011106CE22CC26CA0010930704FE3E8504
:10D9F000EFF01FA9EFD09FAA2326A4FEEFA02FEDE2
:10DA0000AA84C9A8B777011C938747BE9C43B11766
:10DA10002324F4FE832784FE9C570327C4FE1D8F16
:10DA2000B707008093C7E7FF63EFE70A032584FE8B
:10DA3000EFF03FBC832784FE83C79700898B81EF7B
:10DA4000832784FE83C79700F99B13F7F70F83277B
:10DA500084FEA384E700832784FE1387470193078E
:10DA600004FEBA853E85EFF03FA4832784FED84F9D
:10DA7000832784FE9C533E850297EFD03FA2232646
:10DA8000A4FE930704FE3E85EFF07FAAAA8791C308
:10DA900091A0832784FED1073E85EFF01FA5832741
:10DAA00084FE83C79700898B95C7832784FE83C72D
:10DAB0009700858B85C3832784FE83C79700F99BD6
:10DAC00013F7F70F832784FEA384E700032584FE62
:10DAD000EFF01FC0B777011C138547BEEFF03FA5DD
